{
  "_format": "hh-sol-artifact-1",
  "contractName": "TicketNFT",
  "sourceName": "contracts/TicketNFT.sol",
  "abi": [
    {
      "inputs": [],
      "stateMutability": "nonpayable",
      "type": "constructor"
    },
    {
      "anonymous": false,
      "inputs": [
        {
          "indexed": true,
          "internalType": "address",
          "name": "owner",
          "type": "address"
        },
        {
          "indexed": true,
          "internalType": "address",
          "name": "approved",
          "type": "address"
        },
        {
          "indexed": true,
          "internalType": "uint256",
          "name": "tokenId",
          "type": "uint256"
        }
      ],
      "name": "Approval",
      "type": "event"
    },
    {
      "anonymous": false,
      "inputs": [
        {
          "indexed": true,
          "internalType": "address",
          "name": "owner",
          "type": "address"
        },
        {
          "indexed": true,
          "internalType": "address",
          "name": "operator",
          "type": "address"
        },
        {
          "indexed": false,
          "internalType": "bool",
          "name": "approved",
          "type": "bool"
        }
      ],
      "name": "ApprovalForAll",
      "type": "event"
    },
    {
      "anonymous": false,
      "inputs": [
        {
          "indexed": false,
          "internalType": "uint256",
          "name": "_fromTokenId",
          "type": "uint256"
        },
        {
          "indexed": false,
          "internalType": "uint256",
          "name": "_toTokenId",
          "type": "uint256"
        }
      ],
      "name": "BatchMetadataUpdate",
      "type": "event"
    },
    {
      "anonymous": false,
      "inputs": [
        {
          "indexed": false,
          "internalType": "uint256",
          "name": "_tokenId",
          "type": "uint256"
        }
      ],
      "name": "MetadataUpdate",
      "type": "event"
    },
    {
      "anonymous": false,
      "inputs": [
        {
          "indexed": true,
          "internalType": "address",
          "name": "previousOwner",
          "type": "address"
        },
        {
          "indexed": true,
          "internalType": "address",
          "name": "newOwner",
          "type": "address"
        }
      ],
      "name": "OwnershipTransferred",
      "type": "event"
    },
    {
      "anonymous": false,
      "inputs": [
        {
          "indexed": true,
          "internalType": "address",
          "name": "from",
          "type": "address"
        },
        {
          "indexed": true,
          "internalType": "address",
          "name": "to",
          "type": "address"
        },
        {
          "indexed": true,
          "internalType": "uint256",
          "name": "tokenId",
          "type": "uint256"
        }
      ],
      "name": "Transfer",
      "type": "event"
    },
    {
      "inputs": [],
      "name": "MAX_RESALE_PRICE",
      "outputs": [
        {
          "internalType": "uint256",
          "name": "",
          "type": "uint256"
        }
      ],
      "stateMutability": "view",
      "type": "function"
    },
    {
      "inputs": [],
      "name": "ROYALTY_PERCENT",
      "outputs": [
        {
          "internalType": "uint256",
          "name": "",
          "type": "uint256"
        }
      ],
      "stateMutability": "view",
      "type": "function"
    },
    {
      "inputs": [
        {
          "internalType": "address",
          "name": "to",
          "type": "address"
        },
        {
          "internalType": "uint256",
          "name": "tokenId",
          "type": "uint256"
        }
      ],
      "name": "approve",
      "outputs": [],
      "stateMutability": "nonpayable",
      "type": "function"
    },
    {
      "inputs": [
        {
          "internalType": "address",
          "name": "owner",
          "type": "address"
        }
      ],
      "name": "balanceOf",
      "outputs": [
        {
          "internalType": "uint256",
          "name": "",
          "type": "uint256"
        }
      ],
      "stateMutability": "view",
      "type": "function"
    },
    {
      "inputs": [
        {
          "internalType": "uint256",
          "name": "ticketId",
          "type": "uint256"
        }
      ],
      "name": "buyResaleTicket",
      "outputs": [],
      "stateMutability": "payable",
      "type": "function"
    },
    {
      "inputs": [
        {
          "internalType": "uint256",
          "name": "eventId",
          "type": "uint256"
        },
        {
          "internalType": "string",
          "name": "metadataURI",
          "type": "string"
        },
        {
          "internalType": "string",
          "name": "txHash",
          "type": "string"
        }
      ],
      "name": "buyTicket",
      "outputs": [],
      "stateMutability": "payable",
      "type": "function"
    },
    {
      "inputs": [
        {
          "internalType": "string",
          "name": "name",
          "type": "string"
        },
        {
          "internalType": "string",
          "name": "description",
          "type": "string"
        },
        {
          "internalType": "string",
          "name": "venue",
          "type": "string"
        },
        {
          "internalType": "uint256",
          "name": "ticketPrice",
          "type": "uint256"
        },
        {
          "internalType": "uint256",
          "name": "maxTickets",
          "type": "uint256"
        },
        {
          "internalType": "uint256",
          "name": "eventDate",
          "type": "uint256"
        },
        {
          "internalType": "string",
          "name": "bannerImage",
          "type": "string"
        }
      ],
      "name": "createEvent",
      "outputs": [],
      "stateMutability": "nonpayable",
      "type": "function"
    },
    {
      "inputs": [],
      "name": "eventCounter",
      "outputs": [
        {
          "internalType": "uint256",
          "name": "",
          "type": "uint256"
        }
      ],
      "stateMutability": "view",
      "type": "function"
    },
    {
      "inputs": [
        {
          "internalType": "uint256",
          "name": "",
          "type": "uint256"
        }
      ],
      "name": "events",
      "outputs": [
        {
          "internalType": "string",
          "name": "name",
          "type": "string"
        },
        {
          "internalType": "string",
          "name": "description",
          "type": "string"
        },
        {
          "internalType": "string",
          "name": "venue",
          "type": "string"
        },
        {
          "internalType": "uint256",
          "name": "ticketPrice",
          "type": "uint256"
        },
        {
          "internalType": "uint256",
          "name": "maxTickets",
          "type": "uint256"
        },
        {
          "internalType": "uint256",
          "name": "ticketsSold",
          "type": "uint256"
        },
        {
          "internalType": "uint256",
          "name": "eventDate",
          "type": "uint256"
        },
        {
          "internalType": "string",
          "name": "bannerImage",
          "type": "string"
        },
        {
          "internalType": "address",
          "name": "organizer",
          "type": "address"
        },
        {
          "internalType": "uint256",
          "name": "totalEarnings",
          "type": "uint256"
        },
        {
          "internalType": "uint256",
          "name": "totalResaleEarnings",
          "type": "uint256"
        }
      ],
      "stateMutability": "view",
      "type": "function"
    },
    {
      "inputs": [
        {
          "internalType": "uint256",
          "name": "tokenId",
          "type": "uint256"
        }
      ],
      "name": "getApproved",
      "outputs": [
        {
          "internalType": "address",
          "name": "",
          "type": "address"
        }
      ],
      "stateMutability": "view",
      "type": "function"
    },
    {
      "inputs": [
        {
          "internalType": "uint256",
          "name": "eventId",
          "type": "uint256"
        }
      ],
      "name": "getEventDetails",
      "outputs": [
        {
          "internalType": "string",
          "name": "name",
          "type": "string"
        },
        {
          "internalType": "string",
          "name": "description",
          "type": "string"
        },
        {
          "internalType": "string",
          "name": "venue",
          "type": "string"
        },
        {
          "internalType": "uint256",
          "name": "ticketPrice",
          "type": "uint256"
        },
        {
          "internalType": "uint256",
          "name": "maxTickets",
          "type": "uint256"
        },
        {
          "internalType": "uint256",
          "name": "ticketsSold",
          "type": "uint256"
        },
        {
          "internalType": "uint256",
          "name": "eventDate",
          "type": "uint256"
        },
        {
          "internalType": "string",
          "name": "bannerImage",
          "type": "string"
        }
      ],
      "stateMutability": "view",
      "type": "function"
    },
    {
      "inputs": [
        {
          "internalType": "address",
          "name": "organizer",
          "type": "address"
        }
      ],
      "name": "getOrganizerEvents",
      "outputs": [
        {
          "internalType": "uint256[]",
          "name": "",
          "type": "uint256[]"
        }
      ],
      "stateMutability": "view",
      "type": "function"
    },
    {
      "inputs": [
        {
          "internalType": "uint256",
          "name": "ticketId",
          "type": "uint256"
        }
      ],
      "name": "getTicketDetails",
      "outputs": [
        {
          "internalType": "uint256",
          "name": "eventId",
          "type": "uint256"
        },
        {
          "internalType": "bool",
          "name": "used",
          "type": "bool"
        },
        {
          "internalType": "uint256",
          "name": "purchaseTimestamp",
          "type": "uint256"
        },
        {
          "internalType": "string",
          "name": "txHash",
          "type": "string"
        }
      ],
      "stateMutability": "view",
      "type": "function"
    },
    {
      "inputs": [],
      "name": "getTotalEvents",
      "outputs": [
        {
          "internalType": "uint256",
          "name": "",
          "type": "uint256"
        }
      ],
      "stateMutability": "view",
      "type": "function"
    },
    {
      "inputs": [
        {
          "internalType": "address",
          "name": "owner",
          "type": "address"
        },
        {
          "internalType": "address",
          "name": "operator",
          "type": "address"
        }
      ],
      "name": "isApprovedForAll",
      "outputs": [
        {
          "internalType": "bool",
          "name": "",
          "type": "bool"
        }
      ],
      "stateMutability": "view",
      "type": "function"
    },
    {
      "inputs": [
        {
          "internalType": "uint256",
          "name": "ticketId",
          "type": "uint256"
        }
      ],
      "name": "isTicketUsed",
      "outputs": [
        {
          "internalType": "bool",
          "name": "",
          "type": "bool"
        }
      ],
      "stateMutability": "view",
      "type": "function"
    },
    {
      "inputs": [
        {
          "internalType": "uint256",
          "name": "ticketId",
          "type": "uint256"
        },
        {
          "internalType": "uint256",
          "name": "price",
          "type": "uint256"
        }
      ],
      "name": "listForSale",
      "outputs": [],
      "stateMutability": "nonpayable",
      "type": "function"
    },
    {
      "inputs": [
        {
          "internalType": "uint256",
          "name": "ticketId",
          "type": "uint256"
        }
      ],
      "name": "markAsUsed",
      "outputs": [],
      "stateMutability": "nonpayable",
      "type": "function"
    },
    {
      "inputs": [],
      "name": "name",
      "outputs": [
        {
          "internalType": "string",
          "name": "",
          "type": "string"
        }
      ],
      "stateMutability": "view",
      "type": "function"
    },
    {
      "inputs": [
        {
          "internalType": "address",
          "name": "",
          "type": "address"
        },
        {
          "internalType": "uint256",
          "name": "",
          "type": "uint256"
        }
      ],
      "name": "organizerEvents",
      "outputs": [
        {
          "internalType": "uint256",
          "name": "",
          "type": "uint256"
        }
      ],
      "stateMutability": "view",
      "type": "function"
    },
    {
      "inputs": [],
      "name": "owner",
      "outputs": [
        {
          "internalType": "address",
          "name": "",
          "type": "address"
        }
      ],
      "stateMutability": "view",
      "type": "function"
    },
    {
      "inputs": [
        {
          "internalType": "uint256",
          "name": "tokenId",
          "type": "uint256"
        }
      ],
      "name": "ownerOf",
      "outputs": [
        {
          "internalType": "address",
          "name": "",
          "type": "address"
        }
      ],
      "stateMutability": "view",
      "type": "function"
    },
    {
      "inputs": [],
      "name": "renounceOwnership",
      "outputs": [],
      "stateMutability": "nonpayable",
      "type": "function"
    },
    {
      "inputs": [
        {
          "internalType": "uint256",
          "name": "",
          "type": "uint256"
        }
      ],
      "name": "resalePrices",
      "outputs": [
        {
          "internalType": "uint256",
          "name": "",
          "type": "uint256"
        }
      ],
      "stateMutability": "view",
      "type": "function"
    },
    {
      "inputs": [
        {
          "internalType": "address",
          "name": "from",
          "type": "address"
        },
        {
          "internalType": "address",
          "name": "to",
          "type": "address"
        },
        {
          "internalType": "uint256",
          "name": "tokenId",
          "type": "uint256"
        }
      ],
      "name": "safeTransferFrom",
      "outputs": [],
      "stateMutability": "nonpayable",
      "type": "function"
    },
    {
      "inputs": [
        {
          "internalType": "address",
          "name": "from",
          "type": "address"
        },
        {
          "internalType": "address",
          "name": "to",
          "type": "address"
        },
        {
          "internalType": "uint256",
          "name": "tokenId",
          "type": "uint256"
        },
        {
          "internalType": "bytes",
          "name": "data",
          "type": "bytes"
        }
      ],
      "name": "safeTransferFrom",
      "outputs": [],
      "stateMutability": "nonpayable",
      "type": "function"
    },
    {
      "inputs": [
        {
          "internalType": "address",
          "name": "operator",
          "type": "address"
        },
        {
          "internalType": "bool",
          "name": "approved",
          "type": "bool"
        }
      ],
      "name": "setApprovalForAll",
      "outputs": [],
      "stateMutability": "nonpayable",
      "type": "function"
    },
    {
      "inputs": [
        {
          "internalType": "bytes4",
          "name": "interfaceId",
          "type": "bytes4"
        }
      ],
      "name": "supportsInterface",
      "outputs": [
        {
          "internalType": "bool",
          "name": "",
          "type": "bool"
        }
      ],
      "stateMutability": "view",
      "type": "function"
    },
    {
      "inputs": [],
      "name": "symbol",
      "outputs": [
        {
          "internalType": "string",
          "name": "",
          "type": "string"
        }
      ],
      "stateMutability": "view",
      "type": "function"
    },
    {
      "inputs": [],
      "name": "ticketCounter",
      "outputs": [
        {
          "internalType": "uint256",
          "name": "",
          "type": "uint256"
        }
      ],
      "stateMutability": "view",
      "type": "function"
    },
    {
      "inputs": [
        {
          "internalType": "uint256",
          "name": "",
          "type": "uint256"
        }
      ],
      "name": "tickets",
      "outputs": [
        {
          "internalType": "uint256",
          "name": "eventId",
          "type": "uint256"
        },
        {
          "internalType": "bool",
          "name": "used",
          "type": "bool"
        },
        {
          "internalType": "uint256",
          "name": "purchaseTimestamp",
          "type": "uint256"
        },
        {
          "internalType": "string",
          "name": "txHash",
          "type": "string"
        }
      ],
      "stateMutability": "view",
      "type": "function"
    },
    {
      "inputs": [
        {
          "internalType": "uint256",
          "name": "index",
          "type": "uint256"
        }
      ],
      "name": "tokenByIndex",
      "outputs": [
        {
          "internalType": "uint256",
          "name": "",
          "type": "uint256"
        }
      ],
      "stateMutability": "view",
      "type": "function"
    },
    {
      "inputs": [
        {
          "internalType": "address",
          "name": "owner",
          "type": "address"
        },
        {
          "internalType": "uint256",
          "name": "index",
          "type": "uint256"
        }
      ],
      "name": "tokenOfOwnerByIndex",
      "outputs": [
        {
          "internalType": "uint256",
          "name": "",
          "type": "uint256"
        }
      ],
      "stateMutability": "view",
      "type": "function"
    },
    {
      "inputs": [
        {
          "internalType": "uint256",
          "name": "tokenId",
          "type": "uint256"
        }
      ],
      "name": "tokenURI",
      "outputs": [
        {
          "internalType": "string",
          "name": "",
          "type": "string"
        }
      ],
      "stateMutability": "view",
      "type": "function"
    },
    {
      "inputs": [],
      "name": "totalSupply",
      "outputs": [
        {
          "internalType": "uint256",
          "name": "",
          "type": "uint256"
        }
      ],
      "stateMutability": "view",
      "type": "function"
    },
    {
      "inputs": [
        {
          "internalType": "address",
          "name": "from",
          "type": "address"
        },
        {
          "internalType": "address",
          "name": "to",
          "type": "address"
        },
        {
          "internalType": "uint256",
          "name": "tokenId",
          "type": "uint256"
        }
      ],
      "name": "transferFrom",
      "outputs": [],
      "stateMutability": "nonpayable",
      "type": "function"
    },
    {
      "inputs": [
        {
          "internalType": "address",
          "name": "newOwner",
          "type": "address"
        }
      ],
      "name": "transferOwnership",
      "outputs": [],
      "stateMutability": "nonpayable",
      "type": "function"
    }
  ],
  "bytecode": "0x608060405234801561001057600080fd5b506040518060400160405280600b81526020017f4576656e745469636b65740000000000000000000000000000000000000000008152506040518060400160405280600381526020017f45544b0000000000000000000000000000000000000000000000000000000000815250816000908161008c91906103ee565b50806001908161009c91906103ee565b5050506100bb6100b06100d060201b60201c565b6100d860201b60201c565b6000600c819055506000600d819055506104c0565b600033905090565b6000600b60009054906101000a900473ffffffffffffffffffffffffffffffffffffffff16905081600b60006101000a81548173ffffffffffffffffffffffffffffffffffffffff021916908373ffffffffffffffffffffffffffffffffffffffff1602179055508173ffffffffffffffffffffffffffffffffffffffff168173ffffffffffffffffffffffffffffffffffffffff167f8be0079c531659141344cd1fd0a4f28419497f9722a3daafe3b4186f6b6457e060405160405180910390a35050565b600081519050919050565b7f4e487b7100000000000000000000000000000000000000000000000000000000600052604160045260246000fd5b7f4e487b7100000000000000000000000000000000000000000000000000000000600052602260045260246000fd5b6000600282049050600182168061021f57607f821691505b602082108103610232576102316101d8565b5b50919050565b60008190508160005260206000209050919050565b60006020601f8301049050919050565b600082821b905092915050565b60006008830261029a7fffffffffffffffffffffffffffffffffffffffffffffffffffffffffffffffff8261025d565b6102a4868361025d565b95508019841693508086168417925050509392505050565b6000819050919050565b6000819050919050565b60006102eb6102e66102e1846102bc565b6102c6565b6102bc565b9050919050565b6000819050919050565b610305836102d0565b610319610311826102f2565b84845461026a565b825550505050565b600090565b61032e610321565b6103398184846102fc565b505050565b5b8181101561035d57610352600082610326565b60018101905061033f565b5050565b601f8211156103a25761037381610238565b61037c8461024d565b8101602085101561038b578190505b61039f6103978561024d565b83018261033e565b50505b505050565b600082821c905092915050565b60006103c5600019846008026103a7565b1980831691505092915050565b60006103de83836103b4565b9150826002028217905092915050565b6103f78261019e565b67ffffffffffffffff8111156104105761040f6101a9565b5b61041a8254610207565b610425828285610361565b600060209050601f8311600181146104585760008415610446578287015190505b61045085826103d2565b8655506104b8565b601f19841661046686610238565b60005b8281101561048e57848901518255600182019150602085019450602081019050610469565b868310156104ab57848901516104a7601f8916826103b4565b8355505b6001600288020188555050505b505050505050565b6154f0806104cf6000396000f3fe60806040526004361061021a5760003560e01c80636352211e11610123578063b88d4fde116100ab578063e80d7fec1161006f578063e80d7fec14610839578063e985e9c514610862578063ec38d5a01461089f578063f2fde38b146108e3578063ff9f59701461090c5761021a565b8063b88d4fde14610742578063c87b56dd1461076b578063cdcd897e146107a8578063ddc120af146107d3578063e4aa47e3146107fc5761021a565b80638da5cb5b116100f25780638da5cb5b1461065b57806395a864041461068657806395d89b41146106b1578063a22cb465146106dc578063aa11487a146107055761021a565b80636352211e1461059f57806370a08231146105dc578063715018a6146106195780638c4d59d0146106305761021a565b806324c14160116101a65780634f6ccce7116101755780634f6ccce7146104a357806350b44712146104e057806352c55db9146105205780635da6a0411461054b57806361606940146105745761021a565b806324c14160146103c05780632cd1d35c146104005780632f745c591461043d57806342842e0e1461047a5761021a565b8063095ea7b3116101ed578063095ea7b3146102e05780630b7914301461030957806318160ddd146103505780631d9c5d5c1461037b57806323b872dd146103975761021a565b8063019346ea1461021f57806301ffc9a71461023b57806306fdde0314610278578063081812fc146102a3575b600080fd5b61023960048036038101906102349190613a09565b610949565b005b34801561024757600080fd5b50610262600480360381019061025d9190613aec565b610ae2565b60405161026f9190613b34565b60405180910390f35b34801561028457600080fd5b5061028d610af4565b60405161029a9190613bce565b60405180910390f35b3480156102af57600080fd5b506102ca60048036038101906102c59190613bf0565b610b86565b6040516102d79190613c5e565b60405180910390f35b3480156102ec57600080fd5b5061030760048036038101906103029190613ca5565b610bcc565b005b34801561031557600080fd5b50610330600480360381019061032b9190613bf0565b610ce3565b6040516103479b9a99989796959493929190613cf4565b60405180910390f35b34801561035c57600080fd5b50610365610f7d565b6040516103729190613dbb565b60405180910390f35b61039560048036038101906103909190613bf0565b610f8a565b005b3480156103a357600080fd5b506103be60048036038101906103b99190613dd6565b6111a4565b005b3480156103cc57600080fd5b506103e760048036038101906103e29190613bf0565b611204565b6040516103f79493929190613e29565b60405180910390f35b34801561040c57600080fd5b5061042760048036038101906104229190613bf0565b611356565b6040516104349190613b34565b60405180910390f35b34801561044957600080fd5b50610464600480360381019061045f9190613ca5565b6113cb565b6040516104719190613dbb565b60405180910390f35b34801561048657600080fd5b506104a1600480360381019061049c9190613dd6565b611470565b005b3480156104af57600080fd5b506104ca60048036038101906104c59190613bf0565b611490565b6040516104d79190613dbb565b60405180910390f35b3480156104ec57600080fd5b5061050760048036038101906105029190613bf0565b611501565b6040516105179493929190613e29565b60405180910390f35b34801561052c57600080fd5b506105356115c6565b6040516105429190613dbb565b60405180910390f35b34801561055757600080fd5b50610572600480360381019061056d9190613bf0565b6115cc565b005b34801561058057600080fd5b5061058961164e565b6040516105969190613dbb565b60405180910390f35b3480156105ab57600080fd5b506105c660048036038101906105c19190613bf0565b611658565b6040516105d39190613c5e565b60405180910390f35b3480156105e857600080fd5b5061060360048036038101906105fe9190613e75565b6116de565b6040516106109190613dbb565b60405180910390f35b34801561062557600080fd5b5061062e611795565b005b34801561063c57600080fd5b506106456117a9565b6040516106529190613dbb565b60405180910390f35b34801561066757600080fd5b506106706117af565b60405161067d9190613c5e565b60405180910390f35b34801561069257600080fd5b5061069b6117d9565b6040516106a89190613dbb565b60405180910390f35b3480156106bd57600080fd5b506106c66117e5565b6040516106d39190613bce565b60405180910390f35b3480156106e857600080fd5b5061070360048036038101906106fe9190613ece565b611877565b005b34801561071157600080fd5b5061072c60048036038101906107279190613bf0565b61188d565b6040516107399190613dbb565b60405180910390f35b34801561074e57600080fd5b5061076960048036038101906107649190613faf565b6118a5565b005b34801561077757600080fd5b50610792600480360381019061078d9190613bf0565b611907565b60405161079f9190613bce565b60405180910390f35b3480156107b457600080fd5b506107bd611919565b6040516107ca9190613dbb565b60405180910390f35b3480156107df57600080fd5b506107fa60048036038101906107f59190614032565b61191e565b005b34801561080857600080fd5b50610823600480360381019061081e9190613ca5565b611b02565b6040516108309190613dbb565b60405180910390f35b34801561084557600080fd5b50610860600480360381019061085b9190614144565b611b33565b005b34801561086e57600080fd5b5061088960048036038101906108849190614184565b611c1a565b6040516108969190613b34565b60405180910390f35b3480156108ab57600080fd5b506108c660048036038101906108c19190613bf0565b611cae565b6040516108da9897969594939291906141c4565b60405180910390f35b3480156108ef57600080fd5b5061090a60048036038101906109059190613e75565b611ffc565b005b34801561091857600080fd5b50610933600480360381019061092e9190613e75565b61207f565b604051610940919061431c565b60405180910390f35b6000600e6000858152602001908152602001600020905080600401548160050154106109aa576040517f08c379a00000000000000000000000000000000000000000000000000000000081526004016109a19061438a565b60405180910390fd5b80600301543410156109f1576040517f08c379a00000000000000000000000000000000000000000000000000000000081526004016109e8906143f6565b60405180910390fd5b600c6000815480929190610a0490614445565b9190505550610a1533600c54612116565b610a21600c5484612134565b604051806080016040528085815260200160001515815260200142815260200183815250600f6000600c5481526020019081526020016000206000820151816000015560208201518160010160006101000a81548160ff021916908315150217905550604082015181600201556060820151816003019081610aa39190614699565b50905050806005016000815480929190610abc90614445565b919050555034816009016000828254610ad5919061476b565b9250508190555050505050565b6000610aed826121d8565b9050919050565b606060008054610b03906144bc565b80601f0160208091040260200160405190810160405280929190818152602001828054610b2f906144bc565b8015610b7c5780601f10610b5157610100808354040283529160200191610b7c565b820191906000526020600020905b815481529060010190602001808311610b5f57829003601f168201915b5050505050905090565b6000610b9182612252565b6004600083815260200190815260200160002060009054906101000a900473ffffffffffffffffffffffffffffffffffffffff169050919050565b6000610bd782611658565b90508073ffffffffffffffffffffffffffffffffffffffff168373ffffffffffffffffffffffffffffffffffffffff1603610c47576040517f08c379a0000000000000000000000000000000000000000000000000000000008152600401610c3e90614811565b60405180910390fd5b8073ffffffffffffffffffffffffffffffffffffffff16610c6661229d565b73ffffffffffffffffffffffffffffffffffffffff161480610c955750610c9481610c8f61229d565b611c1a565b5b610cd4576040517f08c379a0000000000000000000000000000000000000000000000000000000008152600401610ccb906148a3565b60405180910390fd5b610cde83836122a5565b505050565b600e602052806000526040600020600091509050806000018054610d06906144bc565b80601f0160208091040260200160405190810160405280929190818152602001828054610d32906144bc565b8015610d7f5780601f10610d5457610100808354040283529160200191610d7f565b820191906000526020600020905b815481529060010190602001808311610d6257829003601f168201915b505050505090806001018054610d94906144bc565b80601f0160208091040260200160405190810160405280929190818152602001828054610dc0906144bc565b8015610e0d5780601f10610de257610100808354040283529160200191610e0d565b820191906000526020600020905b815481529060010190602001808311610df057829003601f168201915b505050505090806002018054610e22906144bc565b80601f0160208091040260200160405190810160405280929190818152602001828054610e4e906144bc565b8015610e9b5780601f10610e7057610100808354040283529160200191610e9b565b820191906000526020600020905b815481529060010190602001808311610e7e57829003601f168201915b505050505090806003015490806004015490806005015490806006015490806007018054610ec8906144bc565b80601f0160208091040260200160405190810160405280929190818152602001828054610ef4906144bc565b8015610f415780601f10610f1657610100808354040283529160200191610f41565b820191906000526020600020905b815481529060010190602001808311610f2457829003601f168201915b5050505050908060080160009054906101000a900473ffffffffffffffffffffffffffffffffffffffff169080600901549080600a015490508b565b6000600980549050905090565b60006010600083815260200190815260200160002054905060008111610fe5576040517f08c379a0000000000000000000000000000000000000000000000000000000008152600401610fdc9061490f565b60405180910390fd5b80341015611028576040517f08c379a000000000000000000000000000000000000000000000000000000000815260040161101f906143f6565b60405180910390fd5b600061103383611658565b905060006064600a84611046919061492f565b61105091906149a0565b9050600e6000600f600087815260200190815260200160002060000154815260200190815260200160002060080160009054906101000a900473ffffffffffffffffffffffffffffffffffffffff1673ffffffffffffffffffffffffffffffffffffffff166108fc829081150290604051600060405180830381858888f193505050501580156110e4573d6000803e3d6000fd5b508173ffffffffffffffffffffffffffffffffffffffff166108fc828561110b91906149d1565b9081150290604051600060405180830381858888f19350505050158015611136573d6000803e3d6000fd5b50611142823386611470565b6000601060008681526020019081526020016000208190555080600e6000600f6000888152602001908152602001600020600001548152602001908152602001600020600a016000828254611197919061476b565b9250508190555050505050565b6111b56111af61229d565b8261235e565b6111f4576040517f08c379a00000000000000000000000000000000000000000000000000000000081526004016111eb90614a77565b60405180910390fd5b6111ff8383836123f3565b505050565b60008060006060611214856126ec565b611253576040517f08c379a000000000000000000000000000000000000000000000000000000000815260040161124a90614ae3565b60405180910390fd5b600f600086815260200190815260200160002060000154600f600087815260200190815260200160002060010160009054906101000a900460ff16600f600088815260200190815260200160002060020154600f60008981526020019081526020016000206003018080546112c7906144bc565b80601f01602080910402602001604051908101604052809291908181526020018280546112f3906144bc565b80156113405780601f1061131557610100808354040283529160200191611340565b820191906000526020600020905b81548152906001019060200180831161132357829003601f168201915b5050505050905093509350935093509193509193565b6000611361826126ec565b6113a0576040517f08c379a000000000000000000000000000000000000000000000000000000000815260040161139790614ae3565b60405180910390fd5b600f600083815260200190815260200160002060010160009054906101000a900460ff169050919050565b60006113d6836116de565b8210611417576040517f08c379a000000000000000000000000000000000000000000000000000000000815260040161140e90614b75565b60405180910390fd5b600760008473ffffffffffffffffffffffffffffffffffffffff1673ffffffffffffffffffffffffffffffffffffffff168152602001908152602001600020600083815260200190815260200160002054905092915050565b61148b838383604051806020016040528060008152506118a5565b505050565b600061149a610f7d565b82106114db576040517f08c379a00000000000000000000000000000000000000000000000000000000081526004016114d290614c07565b60405180910390fd5b600982815481106114ef576114ee614c27565b5b90600052602060002001549050919050565b600f6020528060005260406000206000915090508060000154908060010160009054906101000a900460ff1690806002015490806003018054611543906144bc565b80601f016020809104026020016040519081016040528092919081815260200182805461156f906144bc565b80156115bc5780601f10611591576101008083540402835291602001916115bc565b820191906000526020600020905b81548152906001019060200180831161159f57829003601f168201915b5050505050905084565b600d5481565b6115d461272d565b6115dd816126ec565b61161c576040517f08c379a000000000000000000000000000000000000000000000000000000000815260040161161390614ae3565b60405180910390fd5b6001600f600083815260200190815260200160002060010160006101000a81548160ff02191690831515021790555050565b6000600d54905090565b600080611664836127ab565b9050600073ffffffffffffffffffffffffffffffffffffffff168173ffffffffffffffffffffffffffffffffffffffff16036116d5576040517f08c379a00000000000000000000000000000000000000000000000000000000081526004016116cc90614ca2565b60405180910390fd5b80915050919050565b60008073ffffffffffffffffffffffffffffffffffffffff168273ffffffffffffffffffffffffffffffffffffffff160361174e576040517f08c379a000000000000000000000000000000000000000000000000000000000815260040161174590614d34565b60405180910390fd5b600360008373ffffffffffffffffffffffffffffffffffffffff1673ffffffffffffffffffffffffffffffffffffffff168152602001908152602001600020549050919050565b61179d61272d565b6117a760006127e8565b565b600c5481565b6000600b60009054906101000a900473ffffffffffffffffffffffffffffffffffffffff16905090565b678ac7230489e8000081565b6060600180546117f4906144bc565b80601f0160208091040260200160405190810160405280929190818152602001828054611820906144bc565b801561186d5780601f106118425761010080835404028352916020019161186d565b820191906000526020600020905b81548152906001019060200180831161185057829003601f168201915b5050505050905090565b61188961188261229d565b83836128ae565b5050565b60106020528060005260406000206000915090505481565b6118b66118b061229d565b8361235e565b6118f5576040517f08c379a00000000000000000000000000000000000000000000000000000000081526004016118ec90614a77565b60405180910390fd5b61190184848484612a1a565b50505050565b606061191282612a76565b9050919050565b600a81565b600d600081548092919061193190614445565b9190505550604051806101600160405280888152602001878152602001868152602001858152602001848152602001600081526020018381526020018281526020013373ffffffffffffffffffffffffffffffffffffffff168152602001600081526020016000815250600e6000600d54815260200190815260200160002060008201518160000190816119c59190614699565b5060208201518160010190816119db9190614699565b5060408201518160020190816119f19190614699565b50606082015181600301556080820151816004015560a0820151816005015560c0820151816006015560e0820151816007019081611a2f9190614699565b506101008201518160080160006101000a81548173ffffffffffffffffffffffffffffffffffffffff021916908373ffffffffffffffffffffffffffffffffffffffff160217905550610120820151816009015561014082015181600a0155905050601160003373ffffffffffffffffffffffffffffffffffffffff1673ffffffffffffffffffffffffffffffffffffffff168152602001908152602001600020600d54908060018154018082558091505060019003906000526020600020016000909190919091505550505050505050565b60116020528160005260406000208181548110611b1e57600080fd5b90600052602060002001600091509150505481565b3373ffffffffffffffffffffffffffffffffffffffff16611b5383611658565b73ffffffffffffffffffffffffffffffffffffffff1614611ba9576040517f08c379a0000000000000000000000000000000000000000000000000000000008152600401611ba090614da0565b60405180910390fd5b678ac7230489e80000811115611bf4576040517f08c379a0000000000000000000000000000000000000000000000000000000008152600401611beb90614e0c565b60405180910390fd5b806010600084815260200190815260200160002081905550611c163083610bcc565b5050565b6000600560008473ffffffffffffffffffffffffffffffffffffffff1673ffffffffffffffffffffffffffffffffffffffff16815260200190815260200160002060008373ffffffffffffffffffffffffffffffffffffffff1673ffffffffffffffffffffffffffffffffffffffff16815260200190815260200160002060009054906101000a900460ff16905092915050565b606080606060008060008060606000600e60008b815260200190815260200160002060405180610160016040529081600082018054611cec906144bc565b80601f0160208091040260200160405190810160405280929190818152602001828054611d18906144bc565b8015611d655780601f10611d3a57610100808354040283529160200191611d65565b820191906000526020600020905b815481529060010190602001808311611d4857829003601f168201915b50505050508152602001600182018054611d7e906144bc565b80601f0160208091040260200160405190810160405280929190818152602001828054611daa906144bc565b8015611df75780601f10611dcc57610100808354040283529160200191611df7565b820191906000526020600020905b815481529060010190602001808311611dda57829003601f168201915b50505050508152602001600282018054611e10906144bc565b80601f0160208091040260200160405190810160405280929190818152602001828054611e3c906144bc565b8015611e895780601f10611e5e57610100808354040283529160200191611e89565b820191906000526020600020905b815481529060010190602001808311611e6c57829003601f168201915b5050505050815260200160038201548152602001600482015481526020016005820154815260200160068201548152602001600782018054611eca906144bc565b80601f0160208091040260200160405190810160405280929190818152602001828054611ef6906144bc565b8015611f435780601f10611f1857610100808354040283529160200191611f43565b820191906000526020600020905b815481529060010190602001808311611f2657829003601f168201915b505050505081526020016008820160009054906101000a900473ffffffffffffffffffffffffffffffffffffffff1673ffffffffffffffffffffffffffffffffffffffff1673ffffffffffffffffffffffffffffffffffffffff16815260200160098201548152602001600a820154815250509050806000015181602001518260400151836060015184608001518560a001518660c001518760e001519850985098509850985098509850985050919395975091939597565b61200461272d565b600073ffffffffffffffffffffffffffffffffffffffff168173ffffffffffffffffffffffffffffffffffffffff1603612073576040517f08c379a000000000000000000000000000000000000000000000000000000000815260040161206a90614e9e565b60405180910390fd5b61207c816127e8565b50565b6060601160008373ffffffffffffffffffffffffffffffffffffffff1673ffffffffffffffffffffffffffffffffffffffff16815260200190815260200160002080548060200260200160405190810160405280929190818152602001828054801561210a57602002820191906000526020600020905b8154815260200190600101908083116120f6575b50505050509050919050565b612130828260405180602001604052806000815250612b88565b5050565b61213d826126ec565b61217c576040517f08c379a000000000000000000000000000000000000000000000000000000000815260040161217390614f30565b60405180910390fd5b8060066000848152602001908152602001600020908161219c9190614699565b507ff8e1a15aba9398e019f0b49df1a4fde98ee17ae345cb5f6b5e2c27f5033e8ce7826040516121cc9190613dbb565b60405180910390a15050565b60007f780e9d63000000000000000000000000000000000000000000000000000000007bffffffffffffffffffffffffffffffffffffffffffffffffffffffff1916827bffffffffffffffffffffffffffffffffffffffffffffffffffffffff1916148061224b575061224a82612be3565b5b9050919050565b61225b816126ec565b61229a576040517f08c379a000000000000000000000000000000000000000000000000000000000815260040161229190614ca2565b60405180910390fd5b50565b600033905090565b816004600083815260200190815260200160002060006101000a81548173ffffffffffffffffffffffffffffffffffffffff021916908373ffffffffffffffffffffffffffffffffffffffff160217905550808273ffffffffffffffffffffffffffffffffffffffff1661231883611658565b73ffffffffffffffffffffffffffffffffffffffff167f8c5be1e5ebec7d5bd14f71427d1e84f3dd0314c0f7b2291e5b200ac8c7c3b92560405160405180910390a45050565b60008061236a83611658565b90508073ffffffffffffffffffffffffffffffffffffffff168473ffffffffffffffffffffffffffffffffffffffff1614806123ac57506123ab8185611c1a565b5b806123ea57508373ffffffffffffffffffffffffffffffffffffffff166123d284610b86565b73ffffffffffffffffffffffffffffffffffffffff16145b91505092915050565b8273ffffffffffffffffffffffffffffffffffffffff1661241382611658565b73ffffffffffffffffffffffffffffffffffffffff1614612469576040517f08c379a000000000000000000000000000000000000000000000000000000000815260040161246090614fc2565b60405180910390fd5b600073ffffffffffffffffffffffffffffffffffffffff168273ffffffffffffffffffffffffffffffffffffffff16036124d8576040517f08c379a00000000000000000000000000000000000000000000000000000000081526004016124cf90615054565b60405180910390fd5b6124e58383836001612c44565b8273ffffffffffffffffffffffffffffffffffffffff1661250582611658565b73ffffffffffffffffffffffffffffffffffffffff161461255b576040517f08c379a000000000000000000000000000000000000000000000000000000000815260040161255290614fc2565b60405180910390fd5b6004600082815260200190815260200160002060006101000a81549073ffffffffffffffffffffffffffffffffffffffff02191690556001600360008573ffffffffffffffffffffffffffffffffffffffff1673ffffffffffffffffffffffffffffffffffffffff168152602001908152602001600020600082825403925050819055506001600360008473ffffffffffffffffffffffffffffffffffffffff1673ffffffffffffffffffffffffffffffffffffffff16815260200190815260200160002060008282540192505081905550816002600083815260200190815260200160002060006101000a81548173ffffffffffffffffffffffffffffffffffffffff021916908373ffffffffffffffffffffffffffffffffffffffff160217905550808273ffffffffffffffffffffffffffffffffffffffff168473ffffffffffffffffffffffffffffffffffffffff167fddf252ad1be2c89b69c2b068fc378daa952ba7f163c4a11628f55a4df523b3ef60405160405180910390a46126e78383836001612c56565b505050565b60008073ffffffffffffffffffffffffffffffffffffffff1661270e836127ab565b73ffffffffffffffffffffffffffffffffffffffff1614159050919050565b61273561229d565b73ffffffffffffffffffffffffffffffffffffffff166127536117af565b73ffffffffffffffffffffffffffffffffffffffff16146127a9576040517f08c379a00000000000000000000000000000000000000000000000000000000081526004016127a0906150c0565b60405180910390fd5b565b60006002600083815260200190815260200160002060009054906101000a900473ffffffffffffffffffffffffffffffffffffffff169050919050565b6000600b60009054906101000a900473ffffffffffffffffffffffffffffffffffffffff16905081600b60006101000a81548173ffffffffffffffffffffffffffffffffffffffff021916908373ffffffffffffffffffffffffffffffffffffffff1602179055508173ffffffffffffffffffffffffffffffffffffffff168173ffffffffffffffffffffffffffffffffffffffff167f8be0079c531659141344cd1fd0a4f28419497f9722a3daafe3b4186f6b6457e060405160405180910390a35050565b8173ffffffffffffffffffffffffffffffffffffffff168373ffffffffffffffffffffffffffffffffffffffff160361291c576040517f08c379a00000000000000000000000000000000000000000000000000000000081526004016129139061512c565b60405180910390fd5b80600560008573ffffffffffffffffffffffffffffffffffffffff1673ffffffffffffffffffffffffffffffffffffffff16815260200190815260200160002060008473ffffffffffffffffffffffffffffffffffffffff1673ffffffffffffffffffffffffffffffffffffffff16815260200190815260200160002060006101000a81548160ff0219169083151502179055508173ffffffffffffffffffffffffffffffffffffffff168373ffffffffffffffffffffffffffffffffffffffff167f17307eab39ab6107e8899845ad3d59bd9653f200f220920489ca2b5937696c3183604051612a0d9190613b34565b60405180910390a3505050565b612a258484846123f3565b612a3184848484612c5c565b612a70576040517f08c379a0000000000000000000000000000000000000000000000000000000008152600401612a67906151be565b60405180910390fd5b50505050565b6060612a8182612252565b6000600660008481526020019081526020016000208054612aa1906144bc565b80601f0160208091040260200160405190810160405280929190818152602001828054612acd906144bc565b8015612b1a5780601f10612aef57610100808354040283529160200191612b1a565b820191906000526020600020905b815481529060010190602001808311612afd57829003601f168201915b505050505090506000612b2b612de3565b90506000815103612b40578192505050612b83565b600082511115612b75578082604051602001612b5d92919061521a565b60405160208183030381529060405292505050612b83565b612b7e84612dfa565b925050505b919050565b612b928383612e62565b612b9f6000848484612c5c565b612bde576040517f08c379a0000000000000000000000000000000000000000000000000000000008152600401612bd5906151be565b60405180910390fd5b505050565b6000634906490660e01b7bffffffffffffffffffffffffffffffffffffffffffffffffffffffff1916827bffffffffffffffffffffffffffffffffffffffffffffffffffffffff19161480612c3d5750612c3c8261307f565b5b9050919050565b612c5084848484613161565b50505050565b50505050565b6000612c7d8473ffffffffffffffffffffffffffffffffffffffff166132bf565b15612dd6578373ffffffffffffffffffffffffffffffffffffffff1663150b7a02612ca661229d565b8786866040518563ffffffff1660e01b8152600401612cc89493929190615293565b6020604051808303816000875af1925050508015612d0457506040513d601f19601f82011682018060405250810190612d0191906152f4565b60015b612d86573d8060008114612d34576040519150601f19603f3d011682016040523d82523d6000602084013e612d39565b606091505b506000815103612d7e576040517f08c379a0000000000000000000000000000000000000000000000000000000008152600401612d75906151be565b60405180910390fd5b805181602001fd5b63150b7a0260e01b7bffffffffffffffffffffffffffffffffffffffffffffffffffffffff1916817bffffffffffffffffffffffffffffffffffffffffffffffffffffffff191614915050612ddb565b600190505b949350505050565b606060405180602001604052806000815250905090565b6060612e0582612252565b6000612e0f612de3565b90506000815111612e2f5760405180602001604052806000815250612e5a565b80612e39846132e2565b604051602001612e4a92919061521a565b6040516020818303038152906040525b915050919050565b600073ffffffffffffffffffffffffffffffffffffffff168273ffffffffffffffffffffffffffffffffffffffff1603612ed1576040517f08c379a0000000000000000000000000000000000000000000000000000000008152600401612ec89061536d565b60405180910390fd5b612eda816126ec565b15612f1a576040517f08c379a0000000000000000000000000000000000000000000000000000000008152600401612f11906153d9565b60405180910390fd5b612f28600083836001612c44565b612f31816126ec565b15612f71576040517f08c379a0000000000000000000000000000000000000000000000000000000008152600401612f68906153d9565b60405180910390fd5b6001600360008473ffffffffffffffffffffffffffffffffffffffff1673ffffffffffffffffffffffffffffffffffffffff16815260200190815260200160002060008282540192505081905550816002600083815260200190815260200160002060006101000a81548173ffffffffffffffffffffffffffffffffffffffff021916908373ffffffffffffffffffffffffffffffffffffffff160217905550808273ffffffffffffffffffffffffffffffffffffffff16600073ffffffffffffffffffffffffffffffffffffffff167fddf252ad1be2c89b69c2b068fc378daa952ba7f163c4a11628f55a4df523b3ef60405160405180910390a461307b600083836001612c56565b5050565b60007f80ac58cd000000000000000000000000000000000000000000000000000000007bffffffffffffffffffffffffffffffffffffffffffffffffffffffff1916827bffffffffffffffffffffffffffffffffffffffffffffffffffffffff1916148061314a57507f5b5e139f000000000000000000000000000000000000000000000000000000007bffffffffffffffffffffffffffffffffffffffffffffffffffffffff1916827bffffffffffffffffffffffffffffffffffffffffffffffffffffffff1916145b8061315a5750613159826133b0565b5b9050919050565b61316d8484848461341a565b60018111156131b1576040517f08c379a00000000000000000000000000000000000000000000000000000000081526004016131a89061546b565b60405180910390fd5b6000829050600073ffffffffffffffffffffffffffffffffffffffff168573ffffffffffffffffffffffffffffffffffffffff16036131f8576131f381613420565b613237565b8373ffffffffffffffffffffffffffffffffffffffff168573ffffffffffffffffffffffffffffffffffffffff1614613236576132358582613469565b5b5b600073ffffffffffffffffffffffffffffffffffffffff168473ffffffffffffffffffffffffffffffffffffffff160361327957613274816135d6565b6132b8565b8473ffffffffffffffffffffffffffffffffffffffff168473ffffffffffffffffffffffffffffffffffffffff16146132b7576132b684826136a7565b5b5b5050505050565b6000808273ffffffffffffffffffffffffffffffffffffffff163b119050919050565b6060600060016132f184613726565b01905060008167ffffffffffffffff8111156133105761330f6138de565b5b6040519080825280601f01601f1916602001820160405280156133425781602001600182028036833780820191505090505b509050600082602001820190505b6001156133a5578080600190039150507f3031323334353637383961626364656600000000000000000000000000000000600a86061a8153600a858161339957613398614971565b5b04945060008503613350575b819350505050919050565b60007f01ffc9a7000000000000000000000000000000000000000000000000000000007bffffffffffffffffffffffffffffffffffffffffffffffffffffffff1916827bffffffffffffffffffffffffffffffffffffffffffffffffffffffff1916149050919050565b50505050565b600980549050600a600083815260200190815260200160002081905550600981908060018154018082558091505060019003906000526020600020016000909190919091505550565b60006001613476846116de565b61348091906149d1565b9050600060086000848152602001908152602001600020549050818114613565576000600760008673ffffffffffffffffffffffffffffffffffffffff1673ffffffffffffffffffffffffffffffffffffffff168152602001908152602001600020600084815260200190815260200160002054905080600760008773ffffffffffffffffffffffffffffffffffffffff1673ffffffffffffffffffffffffffffffffffffffff168152602001908152602001600020600084815260200190815260200160002081905550816008600083815260200190815260200160002081905550505b6008600084815260200190815260200160002060009055600760008573ffffffffffffffffffffffffffffffffffffffff1673ffffffffffffffffffffffffffffffffffffffff16815260200190815260200160002060008381526020019081526020016000206000905550505050565b600060016009805490506135ea91906149d1565b90506000600a600084815260200190815260200160002054905060006009838154811061361a57613619614c27565b5b90600052602060002001549050806009838154811061363c5761363b614c27565b5b906000526020600020018190555081600a600083815260200190815260200160002081905550600a600085815260200190815260200160002060009055600980548061368b5761368a61548b565b5b6001900381819060005260206000200160009055905550505050565b60006136b2836116de565b905081600760008573ffffffffffffffffffffffffffffffffffffffff1673ffffffffffffffffffffffffffffffffffffffff168152602001908152602001600020600083815260200190815260200160002081905550806008600084815260200190815260200160002081905550505050565b600080600090507a184f03e93ff9f4daa797ed6e38ed64bf6a1f0100000000000000008310613784577a184f03e93ff9f4daa797ed6e38ed64bf6a1f010000000000000000838161377a57613779614971565b5b0492506040810190505b6d04ee2d6d415b85acef810000000083106137c1576d04ee2d6d415b85acef810000000083816137b7576137b6614971565b5b0492506020810190505b662386f26fc1000083106137f057662386f26fc1000083816137e6576137e5614971565b5b0492506010810190505b6305f5e1008310613819576305f5e100838161380f5761380e614971565b5b0492506008810190505b612710831061383e57612710838161383457613833614971565b5b0492506004810190505b60648310613861576064838161385757613856614971565b5b0492506002810190505b600a8310613870576001810190505b80915050919050565b6000604051905090565b600080fd5b600080fd5b6000819050919050565b6138a08161388d565b81146138ab57600080fd5b50565b6000813590506138bd81613897565b92915050565b600080fd5b600080fd5b6000601f19601f8301169050919050565b7f4e487b7100000000000000000000000000000000000000000000000000000000600052604160045260246000fd5b613916826138cd565b810181811067ffffffffffffffff82111715613935576139346138de565b5b80604052505050565b6000613948613879565b9050613954828261390d565b919050565b600067ffffffffffffffff821115613974576139736138de565b5b61397d826138cd565b9050602081019050919050565b82818337600083830152505050565b60006139ac6139a784613959565b61393e565b9050828152602081018484840111156139c8576139c76138c8565b5b6139d384828561398a565b509392505050565b600082601f8301126139f0576139ef6138c3565b5b8135613a00848260208601613999565b91505092915050565b600080600060608486031215613a2257613a21613883565b5b6000613a30868287016138ae565b935050602084013567ffffffffffffffff811115613a5157613a50613888565b5b613a5d868287016139db565b925050604084013567ffffffffffffffff811115613a7e57613a7d613888565b5b613a8a868287016139db565b9150509250925092565b60007fffffffff0000000000000000000000000000000000000000000000000000000082169050919050565b613ac981613a94565b8114613ad457600080fd5b50565b600081359050613ae681613ac0565b92915050565b600060208284031215613b0257613b01613883565b5b6000613b1084828501613ad7565b91505092915050565b60008115159050919050565b613b2e81613b19565b82525050565b6000602082019050613b496000830184613b25565b92915050565b600081519050919050565b600082825260208201905092915050565b60005b83811015613b89578082015181840152602081019050613b6e565b60008484015250505050565b6000613ba082613b4f565b613baa8185613b5a565b9350613bba818560208601613b6b565b613bc3816138cd565b840191505092915050565b60006020820190508181036000830152613be88184613b95565b905092915050565b600060208284031215613c0657613c05613883565b5b6000613c14848285016138ae565b91505092915050565b600073ffffffffffffffffffffffffffffffffffffffff82169050919050565b6000613c4882613c1d565b9050919050565b613c5881613c3d565b82525050565b6000602082019050613c736000830184613c4f565b92915050565b613c8281613c3d565b8114613c8d57600080fd5b50565b600081359050613c9f81613c79565b92915050565b60008060408385031215613cbc57613cbb613883565b5b6000613cca85828601613c90565b9250506020613cdb858286016138ae565b9150509250929050565b613cee8161388d565b82525050565b6000610160820190508181036000830152613d0f818e613b95565b90508181036020830152613d23818d613b95565b90508181036040830152613d37818c613b95565b9050613d46606083018b613ce5565b613d53608083018a613ce5565b613d6060a0830189613ce5565b613d6d60c0830188613ce5565b81810360e0830152613d7f8187613b95565b9050613d8f610100830186613c4f565b613d9d610120830185613ce5565b613dab610140830184613ce5565b9c9b505050505050505050505050565b6000602082019050613dd06000830184613ce5565b92915050565b600080600060608486031215613def57613dee613883565b5b6000613dfd86828701613c90565b9350506020613e0e86828701613c90565b9250506040613e1f868287016138ae565b9150509250925092565b6000608082019050613e3e6000830187613ce5565b613e4b6020830186613b25565b613e586040830185613ce5565b8181036060830152613e6a8184613b95565b905095945050505050565b600060208284031215613e8b57613e8a613883565b5b6000613e9984828501613c90565b91505092915050565b613eab81613b19565b8114613eb657600080fd5b50565b600081359050613ec881613ea2565b92915050565b60008060408385031215613ee557613ee4613883565b5b6000613ef385828601613c90565b9250506020613f0485828601613eb9565b9150509250929050565b600067ffffffffffffffff821115613f2957613f286138de565b5b613f32826138cd565b9050602081019050919050565b6000613f52613f4d84613f0e565b61393e565b905082815260208101848484011115613f6e57613f6d6138c8565b5b613f7984828561398a565b509392505050565b600082601f830112613f9657613f956138c3565b5b8135613fa6848260208601613f3f565b91505092915050565b60008060008060808587031215613fc957613fc8613883565b5b6000613fd787828801613c90565b9450506020613fe887828801613c90565b9350506040613ff9878288016138ae565b925050606085013567ffffffffffffffff81111561401a57614019613888565b5b61402687828801613f81565b91505092959194509250565b600080600080600080600060e0888a03121561405157614050613883565b5b600088013567ffffffffffffffff81111561406f5761406e613888565b5b61407b8a828b016139db565b975050602088013567ffffffffffffffff81111561409c5761409b613888565b5b6140a88a828b016139db565b965050604088013567ffffffffffffffff8111156140c9576140c8613888565b5b6140d58a828b016139db565b95505060606140e68a828b016138ae565b94505060806140f78a828b016138ae565b93505060a06141088a828b016138ae565b92505060c088013567ffffffffffffffff81111561412957614128613888565b5b6141358a828b016139db565b91505092959891949750929550565b6000806040838503121561415b5761415a613883565b5b6000614169858286016138ae565b925050602061417a858286016138ae565b9150509250929050565b6000806040838503121561419b5761419a613883565b5b60006141a985828601613c90565b92505060206141ba85828601613c90565b9150509250929050565b60006101008201905081810360008301526141df818b613b95565b905081810360208301526141f3818a613b95565b905081810360408301526142078189613b95565b90506142166060830188613ce5565b6142236080830187613ce5565b61423060a0830186613ce5565b61423d60c0830185613ce5565b81810360e083015261424f8184613b95565b90509998505050505050505050565b600081519050919050565b600082825260208201905092915050565b6000819050602082019050919050565b6142938161388d565b82525050565b60006142a5838361428a565b60208301905092915050565b6000602082019050919050565b60006142c98261425e565b6142d38185614269565b93506142de8361427a565b8060005b8381101561430f5781516142f68882614299565b9750614301836142b1565b9250506001810190506142e2565b5085935050505092915050565b6000602082019050818103600083015261433681846142be565b905092915050565b7f536f6c64206f7574000000000000000000000000000000000000000000000000600082015250565b6000614374600883613b5a565b915061437f8261433e565b602082019050919050565b600060208201905081810360008301526143a381614367565b9050919050565b7f496e73756666696369656e74207061796d656e74000000000000000000000000600082015250565b60006143e0601483613b5a565b91506143eb826143aa565b602082019050919050565b6000602082019050818103600083015261440f816143d3565b9050919050565b7f4e487b7100000000000000000000000000000000000000000000000000000000600052601160045260246000fd5b60006144508261388d565b91507fffffffffffffffffffffffffffffffffffffffffffffffffffffffffffffffff820361448257614481614416565b5b600182019050919050565b7f4e487b7100000000000000000000000000000000000000000000000000000000600052602260045260246000fd5b600060028204905060018216806144d457607f821691505b6020821081036144e7576144e661448d565b5b50919050565b60008190508160005260206000209050919050565b60006020601f8301049050919050565b600082821b905092915050565b60006008830261454f7fffffffffffffffffffffffffffffffffffffffffffffffffffffffffffffffff82614512565b6145598683614512565b95508019841693508086168417925050509392505050565b6000819050919050565b600061459661459161458c8461388d565b614571565b61388d565b9050919050565b6000819050919050565b6145b08361457b565b6145c46145bc8261459d565b84845461451f565b825550505050565b600090565b6145d96145cc565b6145e48184846145a7565b505050565b5b81811015614608576145fd6000826145d1565b6001810190506145ea565b5050565b601f82111561464d5761461e816144ed565b61462784614502565b81016020851015614636578190505b61464a61464285614502565b8301826145e9565b50505b505050565b600082821c905092915050565b600061467060001984600802614652565b1980831691505092915050565b6000614689838361465f565b9150826002028217905092915050565b6146a282613b4f565b67ffffffffffffffff8111156146bb576146ba6138de565b5b6146c582546144bc565b6146d082828561460c565b600060209050601f83116001811461470357600084156146f1578287015190505b6146fb858261467d565b865550614763565b601f198416614711866144ed565b60005b8281101561473957848901518255600182019150602085019450602081019050614714565b868310156147565784890151614752601f89168261465f565b8355505b6001600288020188555050505b505050505050565b60006147768261388d565b91506147818361388d565b925082820190508082111561479957614798614416565b5b92915050565b7f4552433732313a20617070726f76616c20746f2063757272656e74206f776e6560008201527f7200000000000000000000000000000000000000000000000000000000000000602082015250565b60006147fb602183613b5a565b91506148068261479f565b604082019050919050565b6000602082019050818103600083015261482a816147ee565b9050919050565b7f4552433732313a20617070726f76652063616c6c6572206973206e6f7420746f60008201527f6b656e206f776e6572206f7220617070726f76656420666f7220616c6c000000602082015250565b600061488d603d83613b5a565b915061489882614831565b604082019050919050565b600060208201905081810360008301526148bc81614880565b9050919050565b7f4e6f7420666f722073616c650000000000000000000000000000000000000000600082015250565b60006148f9600c83613b5a565b9150614904826148c3565b602082019050919050565b60006020820190508181036000830152614928816148ec565b9050919050565b600061493a8261388d565b91506149458361388d565b92508282026149538161388d565b9150828204841483151761496a57614969614416565b5b5092915050565b7f4e487b7100000000000000000000000000000000000000000000000000000000600052601260045260246000fd5b60006149ab8261388d565b91506149b68361388d565b9250826149c6576149c5614971565b5b828204905092915050565b60006149dc8261388d565b91506149e78361388d565b92508282039050818111156149ff576149fe614416565b5b92915050565b7f4552433732313a2063616c6c6572206973206e6f7420746f6b656e206f776e6560008201527f72206f7220617070726f76656400000000000000000000000000000000000000602082015250565b6000614a61602d83613b5a565b9150614a6c82614a05565b604082019050919050565b60006020820190508181036000830152614a9081614a54565b9050919050565b7f5469636b657420646f6573206e6f742065786973740000000000000000000000600082015250565b6000614acd601583613b5a565b9150614ad882614a97565b602082019050919050565b60006020820190508181036000830152614afc81614ac0565b9050919050565b7f455243373231456e756d657261626c653a206f776e657220696e646578206f7560008201527f74206f6620626f756e6473000000000000000000000000000000000000000000602082015250565b6000614b5f602b83613b5a565b9150614b6a82614b03565b604082019050919050565b60006020820190508181036000830152614b8e81614b52565b9050919050565b7f455243373231456e756d657261626c653a20676c6f62616c20696e646578206f60008201527f7574206f6620626f756e64730000000000000000000000000000000000000000602082015250565b6000614bf1602c83613b5a565b9150614bfc82614b95565b604082019050919050565b60006020820190508181036000830152614c2081614be4565b9050919050565b7f4e487b7100000000000000000000000000000000000000000000000000000000600052603260045260246000fd5b7f4552433732313a20696e76616c696420746f6b656e2049440000000000000000600082015250565b6000614c8c601883613b5a565b9150614c9782614c56565b602082019050919050565b60006020820190508181036000830152614cbb81614c7f565b9050919050565b7f4552433732313a2061646472657373207a65726f206973206e6f74206120766160008201527f6c6964206f776e65720000000000000000000000000000000000000000000000602082015250565b6000614d1e602983613b5a565b9150614d2982614cc2565b604082019050919050565b60006020820190508181036000830152614d4d81614d11565b9050919050565b7f4e6f74206f776e65720000000000000000000000000000000000000000000000600082015250565b6000614d8a600983613b5a565b9150614d9582614d54565b602082019050919050565b60006020820190508181036000830152614db981614d7d565b9050919050565b7f5072696365206578636565647320636170000000000000000000000000000000600082015250565b6000614df6601183613b5a565b9150614e0182614dc0565b602082019050919050565b60006020820190508181036000830152614e2581614de9565b9050919050565b7f4f776e61626c653a206e6577206f776e657220697320746865207a65726f206160008201527f6464726573730000000000000000000000000000000000000000000000000000602082015250565b6000614e88602683613b5a565b9150614e9382614e2c565b604082019050919050565b60006020820190508181036000830152614eb781614e7b565b9050919050565b7f45524337323155524953746f726167653a2055524920736574206f66206e6f6e60008201527f6578697374656e7420746f6b656e000000000000000000000000000000000000602082015250565b6000614f1a602e83613b5a565b9150614f2582614ebe565b604082019050919050565b60006020820190508181036000830152614f4981614f0d565b9050919050565b7f4552433732313a207472616e736665722066726f6d20696e636f72726563742060008201527f6f776e6572000000000000000000000000000000000000000000000000000000602082015250565b6000614fac602583613b5a565b9150614fb782614f50565b604082019050919050565b60006020820190508181036000830152614fdb81614f9f565b9050919050565b7f4552433732313a207472616e7366657220746f20746865207a65726f2061646460008201527f7265737300000000000000000000000000000000000000000000000000000000602082015250565b600061503e602483613b5a565b915061504982614fe2565b604082019050919050565b6000602082019050818103600083015261506d81615031565b9050919050565b7f4f776e61626c653a2063616c6c6572206973206e6f7420746865206f776e6572600082015250565b60006150aa602083613b5a565b91506150b582615074565b602082019050919050565b600060208201905081810360008301526150d98161509d565b9050919050565b7f4552433732313a20617070726f766520746f2063616c6c657200000000000000600082015250565b6000615116601983613b5a565b9150615121826150e0565b602082019050919050565b6000602082019050818103600083015261514581615109565b9050919050565b7f4552433732313a207472616e7366657220746f206e6f6e20455243373231526560008201527f63656976657220696d706c656d656e7465720000000000000000000000000000602082015250565b60006151a8603283613b5a565b91506151b38261514c565b604082019050919050565b600060208201905081810360008301526151d78161519b565b9050919050565b600081905092915050565b60006151f482613b4f565b6151fe81856151de565b935061520e818560208601613b6b565b80840191505092915050565b600061522682856151e9565b915061523282846151e9565b91508190509392505050565b600081519050919050565b600082825260208201905092915050565b60006152658261523e565b61526f8185615249565b935061527f818560208601613b6b565b615288816138cd565b840191505092915050565b60006080820190506152a86000830187613c4f565b6152b56020830186613c4f565b6152c26040830185613ce5565b81810360608301526152d4818461525a565b905095945050505050565b6000815190506152ee81613ac0565b92915050565b60006020828403121561530a57615309613883565b5b6000615318848285016152df565b91505092915050565b7f4552433732313a206d696e7420746f20746865207a65726f2061646472657373600082015250565b6000615357602083613b5a565b915061536282615321565b602082019050919050565b600060208201905081810360008301526153868161534a565b9050919050565b7f4552433732313a20746f6b656e20616c7265616479206d696e74656400000000600082015250565b60006153c3601c83613b5a565b91506153ce8261538d565b602082019050919050565b600060208201905081810360008301526153f2816153b6565b9050919050565b7f455243373231456e756d657261626c653a20636f6e736563757469766520747260008201527f616e7366657273206e6f7420737570706f727465640000000000000000000000602082015250565b6000615455603583613b5a565b9150615460826153f9565b604082019050919050565b6000602082019050818103600083015261548481615448565b9050919050565b7f4e487b7100000000000000000000000000000000000000000000000000000000600052603160045260246000fdfea2646970667358221220e545ef8d7a796a77713d634b26e2bb4ceee17f093ba0e63bca680d15b84fbb2c64736f6c634300081c0033",
  "linkReferences": {},
  "deployedLinkReferences": {}
}