{
  "_format": "hh-sol-artifact-1",
  "contractName": "TicketNFT",
  "sourceName": "contracts/TicketNFT.sol",
  "abi": [
    {
      "inputs": [],
      "stateMutability": "nonpayable",
      "type": "constructor"
    },
    {
      "anonymous": false,
      "inputs": [
        {
          "indexed": true,
          "internalType": "address",
          "name": "owner",
          "type": "address"
        },
        {
          "indexed": true,
          "internalType": "address",
          "name": "approved",
          "type": "address"
        },
        {
          "indexed": true,
          "internalType": "uint256",
          "name": "tokenId",
          "type": "uint256"
        }
      ],
      "name": "Approval",
      "type": "event"
    },
    {
      "anonymous": false,
      "inputs": [
        {
          "indexed": true,
          "internalType": "address",
          "name": "owner",
          "type": "address"
        },
        {
          "indexed": true,
          "internalType": "address",
          "name": "operator",
          "type": "address"
        },
        {
          "indexed": false,
          "internalType": "bool",
          "name": "approved",
          "type": "bool"
        }
      ],
      "name": "ApprovalForAll",
      "type": "event"
    },
    {
      "anonymous": false,
      "inputs": [
        {
          "indexed": false,
          "internalType": "uint256",
          "name": "_fromTokenId",
          "type": "uint256"
        },
        {
          "indexed": false,
          "internalType": "uint256",
          "name": "_toTokenId",
          "type": "uint256"
        }
      ],
      "name": "BatchMetadataUpdate",
      "type": "event"
    },
    {
      "anonymous": false,
      "inputs": [
        {
          "indexed": false,
          "internalType": "uint256",
          "name": "_tokenId",
          "type": "uint256"
        }
      ],
      "name": "MetadataUpdate",
      "type": "event"
    },
    {
      "anonymous": false,
      "inputs": [
        {
          "indexed": true,
          "internalType": "address",
          "name": "previousOwner",
          "type": "address"
        },
        {
          "indexed": true,
          "internalType": "address",
          "name": "newOwner",
          "type": "address"
        }
      ],
      "name": "OwnershipTransferred",
      "type": "event"
    },
    {
      "anonymous": false,
      "inputs": [
        {
          "indexed": true,
          "internalType": "address",
          "name": "from",
          "type": "address"
        },
        {
          "indexed": true,
          "internalType": "address",
          "name": "to",
          "type": "address"
        },
        {
          "indexed": true,
          "internalType": "uint256",
          "name": "tokenId",
          "type": "uint256"
        }
      ],
      "name": "Transfer",
      "type": "event"
    },
    {
      "inputs": [],
      "name": "MAX_RESALE_PRICE",
      "outputs": [
        {
          "internalType": "uint256",
          "name": "",
          "type": "uint256"
        }
      ],
      "stateMutability": "view",
      "type": "function"
    },
    {
      "inputs": [],
      "name": "ROYALTY_PERCENT",
      "outputs": [
        {
          "internalType": "uint256",
          "name": "",
          "type": "uint256"
        }
      ],
      "stateMutability": "view",
      "type": "function"
    },
    {
      "inputs": [
        {
          "internalType": "address",
          "name": "to",
          "type": "address"
        },
        {
          "internalType": "uint256",
          "name": "tokenId",
          "type": "uint256"
        }
      ],
      "name": "approve",
      "outputs": [],
      "stateMutability": "nonpayable",
      "type": "function"
    },
    {
      "inputs": [
        {
          "internalType": "address",
          "name": "owner",
          "type": "address"
        }
      ],
      "name": "balanceOf",
      "outputs": [
        {
          "internalType": "uint256",
          "name": "",
          "type": "uint256"
        }
      ],
      "stateMutability": "view",
      "type": "function"
    },
    {
      "inputs": [
        {
          "internalType": "uint256",
          "name": "ticketId",
          "type": "uint256"
        }
      ],
      "name": "buyResaleTicket",
      "outputs": [],
      "stateMutability": "payable",
      "type": "function"
    },
    {
      "inputs": [
        {
          "internalType": "uint256",
          "name": "eventId",
          "type": "uint256"
        },
        {
          "internalType": "string",
          "name": "metadataURI",
          "type": "string"
        },
        {
          "internalType": "string",
          "name": "txHash",
          "type": "string"
        }
      ],
      "name": "buyTicket",
      "outputs": [],
      "stateMutability": "payable",
      "type": "function"
    },
    {
      "inputs": [
        {
          "internalType": "string",
          "name": "name",
          "type": "string"
        },
        {
          "internalType": "string",
          "name": "description",
          "type": "string"
        },
        {
          "internalType": "string",
          "name": "venue",
          "type": "string"
        },
        {
          "internalType": "uint256",
          "name": "ticketPrice",
          "type": "uint256"
        },
        {
          "internalType": "uint256",
          "name": "maxTickets",
          "type": "uint256"
        },
        {
          "internalType": "uint256",
          "name": "eventDate",
          "type": "uint256"
        },
        {
          "internalType": "string",
          "name": "bannerImage",
          "type": "string"
        }
      ],
      "name": "createEvent",
      "outputs": [],
      "stateMutability": "nonpayable",
      "type": "function"
    },
    {
      "inputs": [],
      "name": "eventCounter",
      "outputs": [
        {
          "internalType": "uint256",
          "name": "",
          "type": "uint256"
        }
      ],
      "stateMutability": "view",
      "type": "function"
    },
    {
      "inputs": [
        {
          "internalType": "uint256",
          "name": "",
          "type": "uint256"
        }
      ],
      "name": "events",
      "outputs": [
        {
          "internalType": "string",
          "name": "name",
          "type": "string"
        },
        {
          "internalType": "string",
          "name": "description",
          "type": "string"
        },
        {
          "internalType": "string",
          "name": "venue",
          "type": "string"
        },
        {
          "internalType": "uint256",
          "name": "ticketPrice",
          "type": "uint256"
        },
        {
          "internalType": "uint256",
          "name": "maxTickets",
          "type": "uint256"
        },
        {
          "internalType": "uint256",
          "name": "ticketsSold",
          "type": "uint256"
        },
        {
          "internalType": "uint256",
          "name": "eventDate",
          "type": "uint256"
        },
        {
          "internalType": "string",
          "name": "bannerImage",
          "type": "string"
        },
        {
          "internalType": "address",
          "name": "organizer",
          "type": "address"
        },
        {
          "internalType": "uint256",
          "name": "totalEarnings",
          "type": "uint256"
        },
        {
          "internalType": "uint256",
          "name": "totalResaleEarnings",
          "type": "uint256"
        }
      ],
      "stateMutability": "view",
      "type": "function"
    },
    {
      "inputs": [
        {
          "internalType": "uint256",
          "name": "tokenId",
          "type": "uint256"
        }
      ],
      "name": "getApproved",
      "outputs": [
        {
          "internalType": "address",
          "name": "",
          "type": "address"
        }
      ],
      "stateMutability": "view",
      "type": "function"
    },
    {
      "inputs": [
        {
          "internalType": "uint256",
          "name": "eventId",
          "type": "uint256"
        }
      ],
      "name": "getEventDetails",
      "outputs": [
        {
          "internalType": "string",
          "name": "name",
          "type": "string"
        },
        {
          "internalType": "string",
          "name": "description",
          "type": "string"
        },
        {
          "internalType": "string",
          "name": "venue",
          "type": "string"
        },
        {
          "internalType": "uint256",
          "name": "ticketPrice",
          "type": "uint256"
        },
        {
          "internalType": "uint256",
          "name": "maxTickets",
          "type": "uint256"
        },
        {
          "internalType": "uint256",
          "name": "ticketsSold",
          "type": "uint256"
        },
        {
          "internalType": "uint256",
          "name": "eventDate",
          "type": "uint256"
        },
        {
          "internalType": "string",
          "name": "bannerImage",
          "type": "string"
        }
      ],
      "stateMutability": "view",
      "type": "function"
    },
    {
      "inputs": [
        {
          "internalType": "address",
          "name": "organizer",
          "type": "address"
        }
      ],
      "name": "getOrganizerEvents",
      "outputs": [
        {
          "internalType": "uint256[]",
          "name": "",
          "type": "uint256[]"
        }
      ],
      "stateMutability": "view",
      "type": "function"
    },
    {
      "inputs": [
        {
          "internalType": "uint256",
          "name": "ticketId",
          "type": "uint256"
        }
      ],
      "name": "getTicketDetails",
      "outputs": [
        {
          "internalType": "uint256",
          "name": "eventId",
          "type": "uint256"
        },
        {
          "internalType": "bool",
          "name": "used",
          "type": "bool"
        },
        {
          "internalType": "uint256",
          "name": "purchaseTimestamp",
          "type": "uint256"
        },
        {
          "internalType": "string",
          "name": "txHash",
          "type": "string"
        }
      ],
      "stateMutability": "view",
      "type": "function"
    },
    {
      "inputs": [],
      "name": "getTotalEvents",
      "outputs": [
        {
          "internalType": "uint256",
          "name": "",
          "type": "uint256"
        }
      ],
      "stateMutability": "view",
      "type": "function"
    },
    {
      "inputs": [
        {
          "internalType": "address",
          "name": "owner",
          "type": "address"
        },
        {
          "internalType": "address",
          "name": "operator",
          "type": "address"
        }
      ],
      "name": "isApprovedForAll",
      "outputs": [
        {
          "internalType": "bool",
          "name": "",
          "type": "bool"
        }
      ],
      "stateMutability": "view",
      "type": "function"
    },
    {
      "inputs": [
        {
          "internalType": "uint256",
          "name": "ticketId",
          "type": "uint256"
        }
      ],
      "name": "isTicketUsed",
      "outputs": [
        {
          "internalType": "bool",
          "name": "",
          "type": "bool"
        }
      ],
      "stateMutability": "view",
      "type": "function"
    },
    {
      "inputs": [
        {
          "internalType": "uint256",
          "name": "ticketId",
          "type": "uint256"
        },
        {
          "internalType": "uint256",
          "name": "price",
          "type": "uint256"
        }
      ],
      "name": "listForSale",
      "outputs": [],
      "stateMutability": "nonpayable",
      "type": "function"
    },
    {
      "inputs": [
        {
          "internalType": "uint256",
          "name": "ticketId",
          "type": "uint256"
        }
      ],
      "name": "markAsUsed",
      "outputs": [],
      "stateMutability": "nonpayable",
      "type": "function"
    },
    {
      "inputs": [],
      "name": "name",
      "outputs": [
        {
          "internalType": "string",
          "name": "",
          "type": "string"
        }
      ],
      "stateMutability": "view",
      "type": "function"
    },
    {
      "inputs": [
        {
          "internalType": "address",
          "name": "",
          "type": "address"
        },
        {
          "internalType": "uint256",
          "name": "",
          "type": "uint256"
        }
      ],
      "name": "organizerEvents",
      "outputs": [
        {
          "internalType": "uint256",
          "name": "",
          "type": "uint256"
        }
      ],
      "stateMutability": "view",
      "type": "function"
    },
    {
      "inputs": [],
      "name": "owner",
      "outputs": [
        {
          "internalType": "address",
          "name": "",
          "type": "address"
        }
      ],
      "stateMutability": "view",
      "type": "function"
    },
    {
      "inputs": [
        {
          "internalType": "uint256",
          "name": "tokenId",
          "type": "uint256"
        }
      ],
      "name": "ownerOf",
      "outputs": [
        {
          "internalType": "address",
          "name": "",
          "type": "address"
        }
      ],
      "stateMutability": "view",
      "type": "function"
    },
    {
      "inputs": [],
      "name": "renounceOwnership",
      "outputs": [],
      "stateMutability": "nonpayable",
      "type": "function"
    },
    {
      "inputs": [
        {
          "internalType": "uint256",
          "name": "",
          "type": "uint256"
        }
      ],
      "name": "resalePrices",
      "outputs": [
        {
          "internalType": "uint256",
          "name": "",
          "type": "uint256"
        }
      ],
      "stateMutability": "view",
      "type": "function"
    },
    {
      "inputs": [
        {
          "internalType": "address",
          "name": "from",
          "type": "address"
        },
        {
          "internalType": "address",
          "name": "to",
          "type": "address"
        },
        {
          "internalType": "uint256",
          "name": "tokenId",
          "type": "uint256"
        }
      ],
      "name": "safeTransferFrom",
      "outputs": [],
      "stateMutability": "nonpayable",
      "type": "function"
    },
    {
      "inputs": [
        {
          "internalType": "address",
          "name": "from",
          "type": "address"
        },
        {
          "internalType": "address",
          "name": "to",
          "type": "address"
        },
        {
          "internalType": "uint256",
          "name": "tokenId",
          "type": "uint256"
        },
        {
          "internalType": "bytes",
          "name": "data",
          "type": "bytes"
        }
      ],
      "name": "safeTransferFrom",
      "outputs": [],
      "stateMutability": "nonpayable",
      "type": "function"
    },
    {
      "inputs": [
        {
          "internalType": "address",
          "name": "operator",
          "type": "address"
        },
        {
          "internalType": "bool",
          "name": "approved",
          "type": "bool"
        }
      ],
      "name": "setApprovalForAll",
      "outputs": [],
      "stateMutability": "nonpayable",
      "type": "function"
    },
    {
      "inputs": [
        {
          "internalType": "bytes4",
          "name": "interfaceId",
          "type": "bytes4"
        }
      ],
      "name": "supportsInterface",
      "outputs": [
        {
          "internalType": "bool",
          "name": "",
          "type": "bool"
        }
      ],
      "stateMutability": "view",
      "type": "function"
    },
    {
      "inputs": [],
      "name": "symbol",
      "outputs": [
        {
          "internalType": "string",
          "name": "",
          "type": "string"
        }
      ],
      "stateMutability": "view",
      "type": "function"
    },
    {
      "inputs": [],
      "name": "ticketCounter",
      "outputs": [
        {
          "internalType": "uint256",
          "name": "",
          "type": "uint256"
        }
      ],
      "stateMutability": "view",
      "type": "function"
    },
    {
      "inputs": [
        {
          "internalType": "uint256",
          "name": "",
          "type": "uint256"
        }
      ],
      "name": "tickets",
      "outputs": [
        {
          "internalType": "uint256",
          "name": "eventId",
          "type": "uint256"
        },
        {
          "internalType": "bool",
          "name": "used",
          "type": "bool"
        },
        {
          "internalType": "uint256",
          "name": "purchaseTimestamp",
          "type": "uint256"
        },
        {
          "internalType": "string",
          "name": "txHash",
          "type": "string"
        }
      ],
      "stateMutability": "view",
      "type": "function"
    },
    {
      "inputs": [
        {
          "internalType": "uint256",
          "name": "index",
          "type": "uint256"
        }
      ],
      "name": "tokenByIndex",
      "outputs": [
        {
          "internalType": "uint256",
          "name": "",
          "type": "uint256"
        }
      ],
      "stateMutability": "view",
      "type": "function"
    },
    {
      "inputs": [
        {
          "internalType": "address",
          "name": "owner",
          "type": "address"
        },
        {
          "internalType": "uint256",
          "name": "index",
          "type": "uint256"
        }
      ],
      "name": "tokenOfOwnerByIndex",
      "outputs": [
        {
          "internalType": "uint256",
          "name": "",
          "type": "uint256"
        }
      ],
      "stateMutability": "view",
      "type": "function"
    },
    {
      "inputs": [
        {
          "internalType": "uint256",
          "name": "tokenId",
          "type": "uint256"
        }
      ],
      "name": "tokenURI",
      "outputs": [
        {
          "internalType": "string",
          "name": "",
          "type": "string"
        }
      ],
      "stateMutability": "view",
      "type": "function"
    },
    {
      "inputs": [],
      "name": "totalSupply",
      "outputs": [
        {
          "internalType": "uint256",
          "name": "",
          "type": "uint256"
        }
      ],
      "stateMutability": "view",
      "type": "function"
    },
    {
      "inputs": [
        {
          "internalType": "address",
          "name": "from",
          "type": "address"
        },
        {
          "internalType": "address",
          "name": "to",
          "type": "address"
        },
        {
          "internalType": "uint256",
          "name": "tokenId",
          "type": "uint256"
        }
      ],
      "name": "transferFrom",
      "outputs": [],
      "stateMutability": "nonpayable",
      "type": "function"
    },
    {
      "inputs": [
        {
          "internalType": "address",
          "name": "newOwner",
          "type": "address"
        }
      ],
      "name": "transferOwnership",
      "outputs": [],
      "stateMutability": "nonpayable",
      "type": "function"
    },
    {
      "inputs": [
        {
          "internalType": "uint256",
          "name": "eventId",
          "type": "uint256"
        }
      ],
      "name": "withdrawEarnings",
      "outputs": [],
      "stateMutability": "nonpayable",
      "type": "function"
    }
  ],
  "bytecode": "0x608060405234801561001057600080fd5b506040518060400160405280600b81526020017f4576656e745469636b65740000000000000000000000000000000000000000008152506040518060400160405280600381526020017f45544b0000000000000000000000000000000000000000000000000000000000815250816000908161008c91906103ee565b50806001908161009c91906103ee565b5050506100bb6100b06100d060201b60201c565b6100d860201b60201c565b6000600c819055506000600d819055506104c0565b600033905090565b6000600b60009054906101000a900473ffffffffffffffffffffffffffffffffffffffff16905081600b60006101000a81548173ffffffffffffffffffffffffffffffffffffffff021916908373ffffffffffffffffffffffffffffffffffffffff1602179055508173ffffffffffffffffffffffffffffffffffffffff168173ffffffffffffffffffffffffffffffffffffffff167f8be0079c531659141344cd1fd0a4f28419497f9722a3daafe3b4186f6b6457e060405160405180910390a35050565b600081519050919050565b7f4e487b7100000000000000000000000000000000000000000000000000000000600052604160045260246000fd5b7f4e487b7100000000000000000000000000000000000000000000000000000000600052602260045260246000fd5b6000600282049050600182168061021f57607f821691505b602082108103610232576102316101d8565b5b50919050565b60008190508160005260206000209050919050565b60006020601f8301049050919050565b600082821b905092915050565b60006008830261029a7fffffffffffffffffffffffffffffffffffffffffffffffffffffffffffffffff8261025d565b6102a4868361025d565b95508019841693508086168417925050509392505050565b6000819050919050565b6000819050919050565b60006102eb6102e66102e1846102bc565b6102c6565b6102bc565b9050919050565b6000819050919050565b610305836102d0565b610319610311826102f2565b84845461026a565b825550505050565b600090565b61032e610321565b6103398184846102fc565b505050565b5b8181101561035d57610352600082610326565b60018101905061033f565b5050565b601f8211156103a25761037381610238565b61037c8461024d565b8101602085101561038b578190505b61039f6103978561024d565b83018261033e565b50505b505050565b600082821c905092915050565b60006103c5600019846008026103a7565b1980831691505092915050565b60006103de83836103b4565b9150826002028217905092915050565b6103f78261019e565b67ffffffffffffffff8111156104105761040f6101a9565b5b61041a8254610207565b610425828285610361565b600060209050601f8311600181146104585760008415610446578287015190505b61045085826103d2565b8655506104b8565b601f19841661046686610238565b60005b8281101561048e57848901518255600182019150602085019450602081019050610469565b868310156104ab57848901516104a7601f8916826103b4565b8355505b6001600288020188555050505b505050505050565b61574b806104cf6000396000f3fe6080604052600436106102255760003560e01c80636e70096e11610123578063b88d4fde116100ab578063e80d7fec1161006f578063e80d7fec1461086d578063e985e9c514610896578063ec38d5a0146108d3578063f2fde38b14610917578063ff9f59701461094057610225565b8063b88d4fde14610776578063c87b56dd1461079f578063cdcd897e146107dc578063ddc120af14610807578063e4aa47e31461083057610225565b80638da5cb5b116100f25780638da5cb5b1461068f57806395a86404146106ba57806395d89b41146106e5578063a22cb46514610710578063aa11487a1461073957610225565b80636e70096e146105e757806370a0823114610610578063715018a61461064d5780638c4d59d01461066457610225565b806324c14160116101b157806350b447121161017557806350b44712146104eb57806352c55db91461052b5780635da6a04114610556578063616069401461057f5780636352211e146105aa57610225565b806324c14160146103cb5780632cd1d35c1461040b5780632f745c591461044857806342842e0e146104855780634f6ccce7146104ae57610225565b8063095ea7b3116101f8578063095ea7b3146102eb5780630b7914301461031457806318160ddd1461035b5780631d9c5d5c1461038657806323b872dd146103a257610225565b8063019346ea1461022a57806301ffc9a71461024657806306fdde0314610283578063081812fc146102ae575b600080fd5b610244600480360381019061023f9190613b8c565b61097d565b005b34801561025257600080fd5b5061026d60048036038101906102689190613c6f565b610b16565b60405161027a9190613cb7565b60405180910390f35b34801561028f57600080fd5b50610298610b28565b6040516102a59190613d51565b60405180910390f35b3480156102ba57600080fd5b506102d560048036038101906102d09190613d73565b610bba565b6040516102e29190613de1565b60405180910390f35b3480156102f757600080fd5b50610312600480360381019061030d9190613e28565b610c00565b005b34801561032057600080fd5b5061033b60048036038101906103369190613d73565b610d17565b6040516103529b9a99989796959493929190613e77565b60405180910390f35b34801561036757600080fd5b50610370610fb1565b60405161037d9190613f3e565b60405180910390f35b6103a0600480360381019061039b9190613d73565b610fbe565b005b3480156103ae57600080fd5b506103c960048036038101906103c49190613f59565b6111d8565b005b3480156103d757600080fd5b506103f260048036038101906103ed9190613d73565b611238565b6040516104029493929190613fac565b60405180910390f35b34801561041757600080fd5b50610432600480360381019061042d9190613d73565b61138a565b60405161043f9190613cb7565b60405180910390f35b34801561045457600080fd5b5061046f600480360381019061046a9190613e28565b6113ff565b60405161047c9190613f3e565b60405180910390f35b34801561049157600080fd5b506104ac60048036038101906104a79190613f59565b6114a4565b005b3480156104ba57600080fd5b506104d560048036038101906104d09190613d73565b6114c4565b6040516104e29190613f3e565b60405180910390f35b3480156104f757600080fd5b50610512600480360381019061050d9190613d73565b611535565b6040516105229493929190613fac565b60405180910390f35b34801561053757600080fd5b506105406115fa565b60405161054d9190613f3e565b60405180910390f35b34801561056257600080fd5b5061057d60048036038101906105789190613d73565b611600565b005b34801561058b57600080fd5b50610594611682565b6040516105a19190613f3e565b60405180910390f35b3480156105b657600080fd5b506105d160048036038101906105cc9190613d73565b61168c565b6040516105de9190613de1565b60405180910390f35b3480156105f357600080fd5b5061060e60048036038101906106099190613d73565b611712565b005b34801561061c57600080fd5b5061063760048036038101906106329190613ff8565b611861565b6040516106449190613f3e565b60405180910390f35b34801561065957600080fd5b50610662611918565b005b34801561067057600080fd5b5061067961192c565b6040516106869190613f3e565b60405180910390f35b34801561069b57600080fd5b506106a4611932565b6040516106b19190613de1565b60405180910390f35b3480156106c657600080fd5b506106cf61195c565b6040516106dc9190613f3e565b60405180910390f35b3480156106f157600080fd5b506106fa611968565b6040516107079190613d51565b60405180910390f35b34801561071c57600080fd5b5061073760048036038101906107329190614051565b6119fa565b005b34801561074557600080fd5b50610760600480360381019061075b9190613d73565b611a10565b60405161076d9190613f3e565b60405180910390f35b34801561078257600080fd5b5061079d60048036038101906107989190614132565b611a28565b005b3480156107ab57600080fd5b506107c660048036038101906107c19190613d73565b611a8a565b6040516107d39190613d51565b60405180910390f35b3480156107e857600080fd5b506107f1611a9c565b6040516107fe9190613f3e565b60405180910390f35b34801561081357600080fd5b5061082e600480360381019061082991906141b5565b611aa1565b005b34801561083c57600080fd5b5061085760048036038101906108529190613e28565b611c85565b6040516108649190613f3e565b60405180910390f35b34801561087957600080fd5b50610894600480360381019061088f91906142c7565b611cb6565b005b3480156108a257600080fd5b506108bd60048036038101906108b89190614307565b611d9d565b6040516108ca9190613cb7565b60405180910390f35b3480156108df57600080fd5b506108fa60048036038101906108f59190613d73565b611e31565b60405161090e989796959493929190614347565b60405180910390f35b34801561092357600080fd5b5061093e60048036038101906109399190613ff8565b61217f565b005b34801561094c57600080fd5b5061096760048036038101906109629190613ff8565b612202565b604051610974919061449f565b60405180910390f35b6000600e6000858152602001908152602001600020905080600401548160050154106109de576040517f08c379a00000000000000000000000000000000000000000000000000000000081526004016109d59061450d565b60405180910390fd5b8060030154341015610a25576040517f08c379a0000000000000000000000000000000000000000000000000000000008152600401610a1c90614579565b60405180910390fd5b600c6000815480929190610a38906145c8565b9190505550610a4933600c54612299565b610a55600c54846122b7565b604051806080016040528085815260200160001515815260200142815260200183815250600f6000600c5481526020019081526020016000206000820151816000015560208201518160010160006101000a81548160ff021916908315150217905550604082015181600201556060820151816003019081610ad7919061481c565b50905050806005016000815480929190610af0906145c8565b919050555034816009016000828254610b0991906148ee565b9250508190555050505050565b6000610b218261235b565b9050919050565b606060008054610b379061463f565b80601f0160208091040260200160405190810160405280929190818152602001828054610b639061463f565b8015610bb05780601f10610b8557610100808354040283529160200191610bb0565b820191906000526020600020905b815481529060010190602001808311610b9357829003601f168201915b5050505050905090565b6000610bc5826123d5565b6004600083815260200190815260200160002060009054906101000a900473ffffffffffffffffffffffffffffffffffffffff169050919050565b6000610c0b8261168c565b90508073ffffffffffffffffffffffffffffffffffffffff168373ffffffffffffffffffffffffffffffffffffffff1603610c7b576040517f08c379a0000000000000000000000000000000000000000000000000000000008152600401610c7290614994565b60405180910390fd5b8073ffffffffffffffffffffffffffffffffffffffff16610c9a612420565b73ffffffffffffffffffffffffffffffffffffffff161480610cc95750610cc881610cc3612420565b611d9d565b5b610d08576040517f08c379a0000000000000000000000000000000000000000000000000000000008152600401610cff90614a26565b60405180910390fd5b610d128383612428565b505050565b600e602052806000526040600020600091509050806000018054610d3a9061463f565b80601f0160208091040260200160405190810160405280929190818152602001828054610d669061463f565b8015610db35780601f10610d8857610100808354040283529160200191610db3565b820191906000526020600020905b815481529060010190602001808311610d9657829003601f168201915b505050505090806001018054610dc89061463f565b80601f0160208091040260200160405190810160405280929190818152602001828054610df49061463f565b8015610e415780601f10610e1657610100808354040283529160200191610e41565b820191906000526020600020905b815481529060010190602001808311610e2457829003601f168201915b505050505090806002018054610e569061463f565b80601f0160208091040260200160405190810160405280929190818152602001828054610e829061463f565b8015610ecf5780601f10610ea457610100808354040283529160200191610ecf565b820191906000526020600020905b815481529060010190602001808311610eb257829003601f168201915b505050505090806003015490806004015490806005015490806006015490806007018054610efc9061463f565b80601f0160208091040260200160405190810160405280929190818152602001828054610f289061463f565b8015610f755780601f10610f4a57610100808354040283529160200191610f75565b820191906000526020600020905b815481529060010190602001808311610f5857829003601f168201915b5050505050908060080160009054906101000a900473ffffffffffffffffffffffffffffffffffffffff169080600901549080600a015490508b565b6000600980549050905090565b60006010600083815260200190815260200160002054905060008111611019576040517f08c379a000000000000000000000000000000000000000000000000000000000815260040161101090614a92565b60405180910390fd5b8034101561105c576040517f08c379a000000000000000000000000000000000000000000000000000000000815260040161105390614579565b60405180910390fd5b60006110678361168c565b905060006064600a8461107a9190614ab2565b6110849190614b23565b9050600e6000600f600087815260200190815260200160002060000154815260200190815260200160002060080160009054906101000a900473ffffffffffffffffffffffffffffffffffffffff1673ffffffffffffffffffffffffffffffffffffffff166108fc829081150290604051600060405180830381858888f19350505050158015611118573d6000803e3d6000fd5b508173ffffffffffffffffffffffffffffffffffffffff166108fc828561113f9190614b54565b9081150290604051600060405180830381858888f1935050505015801561116a573d6000803e3d6000fd5b506111768233866114a4565b6000601060008681526020019081526020016000208190555080600e6000600f6000888152602001908152602001600020600001548152602001908152602001600020600a0160008282546111cb91906148ee565b9250508190555050505050565b6111e96111e3612420565b826124e1565b611228576040517f08c379a000000000000000000000000000000000000000000000000000000000815260040161121f90614bfa565b60405180910390fd5b611233838383612576565b505050565b600080600060606112488561286f565b611287576040517f08c379a000000000000000000000000000000000000000000000000000000000815260040161127e90614c66565b60405180910390fd5b600f600086815260200190815260200160002060000154600f600087815260200190815260200160002060010160009054906101000a900460ff16600f600088815260200190815260200160002060020154600f60008981526020019081526020016000206003018080546112fb9061463f565b80601f01602080910402602001604051908101604052809291908181526020018280546113279061463f565b80156113745780601f1061134957610100808354040283529160200191611374565b820191906000526020600020905b81548152906001019060200180831161135757829003601f168201915b5050505050905093509350935093509193509193565b60006113958261286f565b6113d4576040517f08c379a00000000000000000000000000000000000000000000000000000000081526004016113cb90614c66565b60405180910390fd5b600f600083815260200190815260200160002060010160009054906101000a900460ff169050919050565b600061140a83611861565b821061144b576040517f08c379a000000000000000000000000000000000000000000000000000000000815260040161144290614cf8565b60405180910390fd5b600760008473ffffffffffffffffffffffffffffffffffffffff1673ffffffffffffffffffffffffffffffffffffffff168152602001908152602001600020600083815260200190815260200160002054905092915050565b6114bf83838360405180602001604052806000815250611a28565b505050565b60006114ce610fb1565b821061150f576040517f08c379a000000000000000000000000000000000000000000000000000000000815260040161150690614d8a565b60405180910390fd5b6009828154811061152357611522614daa565b5b90600052602060002001549050919050565b600f6020528060005260406000206000915090508060000154908060010160009054906101000a900460ff16908060020154908060030180546115779061463f565b80601f01602080910402602001604051908101604052809291908181526020018280546115a39061463f565b80156115f05780601f106115c5576101008083540402835291602001916115f0565b820191906000526020600020905b8154815290600101906020018083116115d357829003601f168201915b5050505050905084565b600d5481565b6116086128b0565b6116118161286f565b611650576040517f08c379a000000000000000000000000000000000000000000000000000000000815260040161164790614c66565b60405180910390fd5b6001600f600083815260200190815260200160002060010160006101000a81548160ff02191690831515021790555050565b6000600d54905090565b6000806116988361292e565b9050600073ffffffffffffffffffffffffffffffffffffffff168173ffffffffffffffffffffffffffffffffffffffff1603611709576040517f08c379a000000000000000000000000000000000000000000000000000000000815260040161170090614e25565b60405180910390fd5b80915050919050565b6000600e600083815260200190815260200160002090508060080160009054906101000a900473ffffffffffffffffffffffffffffffffffffffff1673ffffffffffffffffffffffffffffffffffffffff163373ffffffffffffffffffffffffffffffffffffffff16146117bb576040517f08c379a00000000000000000000000000000000000000000000000000000000081526004016117b290614e91565b60405180910390fd5b6000816009015411611802576040517f08c379a00000000000000000000000000000000000000000000000000000000081526004016117f990614efd565b60405180910390fd5b600081600901549050600082600901819055503373ffffffffffffffffffffffffffffffffffffffff166108fc829081150290604051600060405180830381858888f1935050505015801561185b573d6000803e3d6000fd5b50505050565b60008073ffffffffffffffffffffffffffffffffffffffff168273ffffffffffffffffffffffffffffffffffffffff16036118d1576040517f08c379a00000000000000000000000000000000000000000000000000000000081526004016118c890614f8f565b60405180910390fd5b600360008373ffffffffffffffffffffffffffffffffffffffff1673ffffffffffffffffffffffffffffffffffffffff168152602001908152602001600020549050919050565b6119206128b0565b61192a600061296b565b565b600c5481565b6000600b60009054906101000a900473ffffffffffffffffffffffffffffffffffffffff16905090565b678ac7230489e8000081565b6060600180546119779061463f565b80601f01602080910402602001604051908101604052809291908181526020018280546119a39061463f565b80156119f05780601f106119c5576101008083540402835291602001916119f0565b820191906000526020600020905b8154815290600101906020018083116119d357829003601f168201915b5050505050905090565b611a0c611a05612420565b8383612a31565b5050565b60106020528060005260406000206000915090505481565b611a39611a33612420565b836124e1565b611a78576040517f08c379a0000000000000000000000000000000000000000000000000000000008152600401611a6f90614bfa565b60405180910390fd5b611a8484848484612b9d565b50505050565b6060611a9582612bf9565b9050919050565b600a81565b600d6000815480929190611ab4906145c8565b9190505550604051806101600160405280888152602001878152602001868152602001858152602001848152602001600081526020018381526020018281526020013373ffffffffffffffffffffffffffffffffffffffff168152602001600081526020016000815250600e6000600d5481526020019081526020016000206000820151816000019081611b48919061481c565b506020820151816001019081611b5e919061481c565b506040820151816002019081611b74919061481c565b50606082015181600301556080820151816004015560a0820151816005015560c0820151816006015560e0820151816007019081611bb2919061481c565b506101008201518160080160006101000a81548173ffffffffffffffffffffffffffffffffffffffff021916908373ffffffffffffffffffffffffffffffffffffffff160217905550610120820151816009015561014082015181600a0155905050601160003373ffffffffffffffffffffffffffffffffffffffff1673ffffffffffffffffffffffffffffffffffffffff168152602001908152602001600020600d54908060018154018082558091505060019003906000526020600020016000909190919091505550505050505050565b60116020528160005260406000208181548110611ca157600080fd5b90600052602060002001600091509150505481565b3373ffffffffffffffffffffffffffffffffffffffff16611cd68361168c565b73ffffffffffffffffffffffffffffffffffffffff1614611d2c576040517f08c379a0000000000000000000000000000000000000000000000000000000008152600401611d2390614ffb565b60405180910390fd5b678ac7230489e80000811115611d77576040517f08c379a0000000000000000000000000000000000000000000000000000000008152600401611d6e90615067565b60405180910390fd5b806010600084815260200190815260200160002081905550611d993083610c00565b5050565b6000600560008473ffffffffffffffffffffffffffffffffffffffff1673ffffffffffffffffffffffffffffffffffffffff16815260200190815260200160002060008373ffffffffffffffffffffffffffffffffffffffff1673ffffffffffffffffffffffffffffffffffffffff16815260200190815260200160002060009054906101000a900460ff16905092915050565b606080606060008060008060606000600e60008b815260200190815260200160002060405180610160016040529081600082018054611e6f9061463f565b80601f0160208091040260200160405190810160405280929190818152602001828054611e9b9061463f565b8015611ee85780601f10611ebd57610100808354040283529160200191611ee8565b820191906000526020600020905b815481529060010190602001808311611ecb57829003601f168201915b50505050508152602001600182018054611f019061463f565b80601f0160208091040260200160405190810160405280929190818152602001828054611f2d9061463f565b8015611f7a5780601f10611f4f57610100808354040283529160200191611f7a565b820191906000526020600020905b815481529060010190602001808311611f5d57829003601f168201915b50505050508152602001600282018054611f939061463f565b80601f0160208091040260200160405190810160405280929190818152602001828054611fbf9061463f565b801561200c5780601f10611fe15761010080835404028352916020019161200c565b820191906000526020600020905b815481529060010190602001808311611fef57829003601f168201915b505050505081526020016003820154815260200160048201548152602001600582015481526020016006820154815260200160078201805461204d9061463f565b80601f01602080910402602001604051908101604052809291908181526020018280546120799061463f565b80156120c65780601f1061209b576101008083540402835291602001916120c6565b820191906000526020600020905b8154815290600101906020018083116120a957829003601f168201915b505050505081526020016008820160009054906101000a900473ffffffffffffffffffffffffffffffffffffffff1673ffffffffffffffffffffffffffffffffffffffff1673ffffffffffffffffffffffffffffffffffffffff16815260200160098201548152602001600a820154815250509050806000015181602001518260400151836060015184608001518560a001518660c001518760e001519850985098509850985098509850985050919395975091939597565b6121876128b0565b600073ffffffffffffffffffffffffffffffffffffffff168173ffffffffffffffffffffffffffffffffffffffff16036121f6576040517f08c379a00000000000000000000000000000000000000000000000000000000081526004016121ed906150f9565b60405180910390fd5b6121ff8161296b565b50565b6060601160008373ffffffffffffffffffffffffffffffffffffffff1673ffffffffffffffffffffffffffffffffffffffff16815260200190815260200160002080548060200260200160405190810160405280929190818152602001828054801561228d57602002820191906000526020600020905b815481526020019060010190808311612279575b50505050509050919050565b6122b3828260405180602001604052806000815250612d0b565b5050565b6122c08261286f565b6122ff576040517f08c379a00000000000000000000000000000000000000000000000000000000081526004016122f69061518b565b60405180910390fd5b8060066000848152602001908152602001600020908161231f919061481c565b507ff8e1a15aba9398e019f0b49df1a4fde98ee17ae345cb5f6b5e2c27f5033e8ce78260405161234f9190613f3e565b60405180910390a15050565b60007f780e9d63000000000000000000000000000000000000000000000000000000007bffffffffffffffffffffffffffffffffffffffffffffffffffffffff1916827bffffffffffffffffffffffffffffffffffffffffffffffffffffffff191614806123ce57506123cd82612d66565b5b9050919050565b6123de8161286f565b61241d576040517f08c379a000000000000000000000000000000000000000000000000000000000815260040161241490614e25565b60405180910390fd5b50565b600033905090565b816004600083815260200190815260200160002060006101000a81548173ffffffffffffffffffffffffffffffffffffffff021916908373ffffffffffffffffffffffffffffffffffffffff160217905550808273ffffffffffffffffffffffffffffffffffffffff1661249b8361168c565b73ffffffffffffffffffffffffffffffffffffffff167f8c5be1e5ebec7d5bd14f71427d1e84f3dd0314c0f7b2291e5b200ac8c7c3b92560405160405180910390a45050565b6000806124ed8361168c565b90508073ffffffffffffffffffffffffffffffffffffffff168473ffffffffffffffffffffffffffffffffffffffff16148061252f575061252e8185611d9d565b5b8061256d57508373ffffffffffffffffffffffffffffffffffffffff1661255584610bba565b73ffffffffffffffffffffffffffffffffffffffff16145b91505092915050565b8273ffffffffffffffffffffffffffffffffffffffff166125968261168c565b73ffffffffffffffffffffffffffffffffffffffff16146125ec576040517f08c379a00000000000000000000000000000000000000000000000000000000081526004016125e39061521d565b60405180910390fd5b600073ffffffffffffffffffffffffffffffffffffffff168273ffffffffffffffffffffffffffffffffffffffff160361265b576040517f08c379a0000000000000000000000000000000000000000000000000000000008152600401612652906152af565b60405180910390fd5b6126688383836001612dc7565b8273ffffffffffffffffffffffffffffffffffffffff166126888261168c565b73ffffffffffffffffffffffffffffffffffffffff16146126de576040517f08c379a00000000000000000000000000000000000000000000000000000000081526004016126d59061521d565b60405180910390fd5b6004600082815260200190815260200160002060006101000a81549073ffffffffffffffffffffffffffffffffffffffff02191690556001600360008573ffffffffffffffffffffffffffffffffffffffff1673ffffffffffffffffffffffffffffffffffffffff168152602001908152602001600020600082825403925050819055506001600360008473ffffffffffffffffffffffffffffffffffffffff1673ffffffffffffffffffffffffffffffffffffffff16815260200190815260200160002060008282540192505081905550816002600083815260200190815260200160002060006101000a81548173ffffffffffffffffffffffffffffffffffffffff021916908373ffffffffffffffffffffffffffffffffffffffff160217905550808273ffffffffffffffffffffffffffffffffffffffff168473ffffffffffffffffffffffffffffffffffffffff167fddf252ad1be2c89b69c2b068fc378daa952ba7f163c4a11628f55a4df523b3ef60405160405180910390a461286a8383836001612dd9565b505050565b60008073ffffffffffffffffffffffffffffffffffffffff166128918361292e565b73ffffffffffffffffffffffffffffffffffffffff1614159050919050565b6128b8612420565b73ffffffffffffffffffffffffffffffffffffffff166128d6611932565b73ffffffffffffffffffffffffffffffffffffffff161461292c576040517f08c379a00000000000000000000000000000000000000000000000000000000081526004016129239061531b565b60405180910390fd5b565b60006002600083815260200190815260200160002060009054906101000a900473ffffffffffffffffffffffffffffffffffffffff169050919050565b6000600b60009054906101000a900473ffffffffffffffffffffffffffffffffffffffff16905081600b60006101000a81548173ffffffffffffffffffffffffffffffffffffffff021916908373ffffffffffffffffffffffffffffffffffffffff1602179055508173ffffffffffffffffffffffffffffffffffffffff168173ffffffffffffffffffffffffffffffffffffffff167f8be0079c531659141344cd1fd0a4f28419497f9722a3daafe3b4186f6b6457e060405160405180910390a35050565b8173ffffffffffffffffffffffffffffffffffffffff168373ffffffffffffffffffffffffffffffffffffffff1603612a9f576040517f08c379a0000000000000000000000000000000000000000000000000000000008152600401612a9690615387565b60405180910390fd5b80600560008573ffffffffffffffffffffffffffffffffffffffff1673ffffffffffffffffffffffffffffffffffffffff16815260200190815260200160002060008473ffffffffffffffffffffffffffffffffffffffff1673ffffffffffffffffffffffffffffffffffffffff16815260200190815260200160002060006101000a81548160ff0219169083151502179055508173ffffffffffffffffffffffffffffffffffffffff168373ffffffffffffffffffffffffffffffffffffffff167f17307eab39ab6107e8899845ad3d59bd9653f200f220920489ca2b5937696c3183604051612b909190613cb7565b60405180910390a3505050565b612ba8848484612576565b612bb484848484612ddf565b612bf3576040517f08c379a0000000000000000000000000000000000000000000000000000000008152600401612bea90615419565b60405180910390fd5b50505050565b6060612c04826123d5565b6000600660008481526020019081526020016000208054612c249061463f565b80601f0160208091040260200160405190810160405280929190818152602001828054612c509061463f565b8015612c9d5780601f10612c7257610100808354040283529160200191612c9d565b820191906000526020600020905b815481529060010190602001808311612c8057829003601f168201915b505050505090506000612cae612f66565b90506000815103612cc3578192505050612d06565b600082511115612cf8578082604051602001612ce0929190615475565b60405160208183030381529060405292505050612d06565b612d0184612f7d565b925050505b919050565b612d158383612fe5565b612d226000848484612ddf565b612d61576040517f08c379a0000000000000000000000000000000000000000000000000000000008152600401612d5890615419565b60405180910390fd5b505050565b6000634906490660e01b7bffffffffffffffffffffffffffffffffffffffffffffffffffffffff1916827bffffffffffffffffffffffffffffffffffffffffffffffffffffffff19161480612dc05750612dbf82613202565b5b9050919050565b612dd3848484846132e4565b50505050565b50505050565b6000612e008473ffffffffffffffffffffffffffffffffffffffff16613442565b15612f59578373ffffffffffffffffffffffffffffffffffffffff1663150b7a02612e29612420565b8786866040518563ffffffff1660e01b8152600401612e4b94939291906154ee565b6020604051808303816000875af1925050508015612e8757506040513d601f19601f82011682018060405250810190612e84919061554f565b60015b612f09573d8060008114612eb7576040519150601f19603f3d011682016040523d82523d6000602084013e612ebc565b606091505b506000815103612f01576040517f08c379a0000000000000000000000000000000000000000000000000000000008152600401612ef890615419565b60405180910390fd5b805181602001fd5b63150b7a0260e01b7bffffffffffffffffffffffffffffffffffffffffffffffffffffffff1916817bffffffffffffffffffffffffffffffffffffffffffffffffffffffff191614915050612f5e565b600190505b949350505050565b606060405180602001604052806000815250905090565b6060612f88826123d5565b6000612f92612f66565b90506000815111612fb25760405180602001604052806000815250612fdd565b80612fbc84613465565b604051602001612fcd929190615475565b6040516020818303038152906040525b915050919050565b600073ffffffffffffffffffffffffffffffffffffffff168273ffffffffffffffffffffffffffffffffffffffff1603613054576040517f08c379a000000000000000000000000000000000000000000000000000000000815260040161304b906155c8565b60405180910390fd5b61305d8161286f565b1561309d576040517f08c379a000000000000000000000000000000000000000000000000000000000815260040161309490615634565b60405180910390fd5b6130ab600083836001612dc7565b6130b48161286f565b156130f4576040517f08c379a00000000000000000000000000000000000000000000000000000000081526004016130eb90615634565b60405180910390fd5b6001600360008473ffffffffffffffffffffffffffffffffffffffff1673ffffffffffffffffffffffffffffffffffffffff16815260200190815260200160002060008282540192505081905550816002600083815260200190815260200160002060006101000a81548173ffffffffffffffffffffffffffffffffffffffff021916908373ffffffffffffffffffffffffffffffffffffffff160217905550808273ffffffffffffffffffffffffffffffffffffffff16600073ffffffffffffffffffffffffffffffffffffffff167fddf252ad1be2c89b69c2b068fc378daa952ba7f163c4a11628f55a4df523b3ef60405160405180910390a46131fe600083836001612dd9565b5050565b60007f80ac58cd000000000000000000000000000000000000000000000000000000007bffffffffffffffffffffffffffffffffffffffffffffffffffffffff1916827bffffffffffffffffffffffffffffffffffffffffffffffffffffffff191614806132cd57507f5b5e139f000000000000000000000000000000000000000000000000000000007bffffffffffffffffffffffffffffffffffffffffffffffffffffffff1916827bffffffffffffffffffffffffffffffffffffffffffffffffffffffff1916145b806132dd57506132dc82613533565b5b9050919050565b6132f08484848461359d565b6001811115613334576040517f08c379a000000000000000000000000000000000000000000000000000000000815260040161332b906156c6565b60405180910390fd5b6000829050600073ffffffffffffffffffffffffffffffffffffffff168573ffffffffffffffffffffffffffffffffffffffff160361337b57613376816135a3565b6133ba565b8373ffffffffffffffffffffffffffffffffffffffff168573ffffffffffffffffffffffffffffffffffffffff16146133b9576133b885826135ec565b5b5b600073ffffffffffffffffffffffffffffffffffffffff168473ffffffffffffffffffffffffffffffffffffffff16036133fc576133f781613759565b61343b565b8473ffffffffffffffffffffffffffffffffffffffff168473ffffffffffffffffffffffffffffffffffffffff161461343a57613439848261382a565b5b5b5050505050565b6000808273ffffffffffffffffffffffffffffffffffffffff163b119050919050565b606060006001613474846138a9565b01905060008167ffffffffffffffff81111561349357613492613a61565b5b6040519080825280601f01601f1916602001820160405280156134c55781602001600182028036833780820191505090505b509050600082602001820190505b600115613528578080600190039150507f3031323334353637383961626364656600000000000000000000000000000000600a86061a8153600a858161351c5761351b614af4565b5b049450600085036134d3575b819350505050919050565b60007f01ffc9a7000000000000000000000000000000000000000000000000000000007bffffffffffffffffffffffffffffffffffffffffffffffffffffffff1916827bffffffffffffffffffffffffffffffffffffffffffffffffffffffff1916149050919050565b50505050565b600980549050600a600083815260200190815260200160002081905550600981908060018154018082558091505060019003906000526020600020016000909190919091505550565b600060016135f984611861565b6136039190614b54565b90506000600860008481526020019081526020016000205490508181146136e8576000600760008673ffffffffffffffffffffffffffffffffffffffff1673ffffffffffffffffffffffffffffffffffffffff168152602001908152602001600020600084815260200190815260200160002054905080600760008773ffffffffffffffffffffffffffffffffffffffff1673ffffffffffffffffffffffffffffffffffffffff168152602001908152602001600020600084815260200190815260200160002081905550816008600083815260200190815260200160002081905550505b6008600084815260200190815260200160002060009055600760008573ffffffffffffffffffffffffffffffffffffffff1673ffffffffffffffffffffffffffffffffffffffff16815260200190815260200160002060008381526020019081526020016000206000905550505050565b6000600160098054905061376d9190614b54565b90506000600a600084815260200190815260200160002054905060006009838154811061379d5761379c614daa565b5b9060005260206000200154905080600983815481106137bf576137be614daa565b5b906000526020600020018190555081600a600083815260200190815260200160002081905550600a600085815260200190815260200160002060009055600980548061380e5761380d6156e6565b5b6001900381819060005260206000200160009055905550505050565b600061383583611861565b905081600760008573ffffffffffffffffffffffffffffffffffffffff1673ffffffffffffffffffffffffffffffffffffffff168152602001908152602001600020600083815260200190815260200160002081905550806008600084815260200190815260200160002081905550505050565b600080600090507a184f03e93ff9f4daa797ed6e38ed64bf6a1f0100000000000000008310613907577a184f03e93ff9f4daa797ed6e38ed64bf6a1f01000000000000000083816138fd576138fc614af4565b5b0492506040810190505b6d04ee2d6d415b85acef81000000008310613944576d04ee2d6d415b85acef8100000000838161393a57613939614af4565b5b0492506020810190505b662386f26fc10000831061397357662386f26fc10000838161396957613968614af4565b5b0492506010810190505b6305f5e100831061399c576305f5e100838161399257613991614af4565b5b0492506008810190505b61271083106139c15761271083816139b7576139b6614af4565b5b0492506004810190505b606483106139e457606483816139da576139d9614af4565b5b0492506002810190505b600a83106139f3576001810190505b80915050919050565b6000604051905090565b600080fd5b600080fd5b6000819050919050565b613a2381613a10565b8114613a2e57600080fd5b50565b600081359050613a4081613a1a565b92915050565b600080fd5b600080fd5b6000601f19601f8301169050919050565b7f4e487b7100000000000000000000000000000000000000000000000000000000600052604160045260246000fd5b613a9982613a50565b810181811067ffffffffffffffff82111715613ab857613ab7613a61565b5b80604052505050565b6000613acb6139fc565b9050613ad78282613a90565b919050565b600067ffffffffffffffff821115613af757613af6613a61565b5b613b0082613a50565b9050602081019050919050565b82818337600083830152505050565b6000613b2f613b2a84613adc565b613ac1565b905082815260208101848484011115613b4b57613b4a613a4b565b5b613b56848285613b0d565b509392505050565b600082601f830112613b7357613b72613a46565b5b8135613b83848260208601613b1c565b91505092915050565b600080600060608486031215613ba557613ba4613a06565b5b6000613bb386828701613a31565b935050602084013567ffffffffffffffff811115613bd457613bd3613a0b565b5b613be086828701613b5e565b925050604084013567ffffffffffffffff811115613c0157613c00613a0b565b5b613c0d86828701613b5e565b9150509250925092565b60007fffffffff0000000000000000000000000000000000000000000000000000000082169050919050565b613c4c81613c17565b8114613c5757600080fd5b50565b600081359050613c6981613c43565b92915050565b600060208284031215613c8557613c84613a06565b5b6000613c9384828501613c5a565b91505092915050565b60008115159050919050565b613cb181613c9c565b82525050565b6000602082019050613ccc6000830184613ca8565b92915050565b600081519050919050565b600082825260208201905092915050565b60005b83811015613d0c578082015181840152602081019050613cf1565b60008484015250505050565b6000613d2382613cd2565b613d2d8185613cdd565b9350613d3d818560208601613cee565b613d4681613a50565b840191505092915050565b60006020820190508181036000830152613d6b8184613d18565b905092915050565b600060208284031215613d8957613d88613a06565b5b6000613d9784828501613a31565b91505092915050565b600073ffffffffffffffffffffffffffffffffffffffff82169050919050565b6000613dcb82613da0565b9050919050565b613ddb81613dc0565b82525050565b6000602082019050613df66000830184613dd2565b92915050565b613e0581613dc0565b8114613e1057600080fd5b50565b600081359050613e2281613dfc565b92915050565b60008060408385031215613e3f57613e3e613a06565b5b6000613e4d85828601613e13565b9250506020613e5e85828601613a31565b9150509250929050565b613e7181613a10565b82525050565b6000610160820190508181036000830152613e92818e613d18565b90508181036020830152613ea6818d613d18565b90508181036040830152613eba818c613d18565b9050613ec9606083018b613e68565b613ed6608083018a613e68565b613ee360a0830189613e68565b613ef060c0830188613e68565b81810360e0830152613f028187613d18565b9050613f12610100830186613dd2565b613f20610120830185613e68565b613f2e610140830184613e68565b9c9b505050505050505050505050565b6000602082019050613f536000830184613e68565b92915050565b600080600060608486031215613f7257613f71613a06565b5b6000613f8086828701613e13565b9350506020613f9186828701613e13565b9250506040613fa286828701613a31565b9150509250925092565b6000608082019050613fc16000830187613e68565b613fce6020830186613ca8565b613fdb6040830185613e68565b8181036060830152613fed8184613d18565b905095945050505050565b60006020828403121561400e5761400d613a06565b5b600061401c84828501613e13565b91505092915050565b61402e81613c9c565b811461403957600080fd5b50565b60008135905061404b81614025565b92915050565b6000806040838503121561406857614067613a06565b5b600061407685828601613e13565b92505060206140878582860161403c565b9150509250929050565b600067ffffffffffffffff8211156140ac576140ab613a61565b5b6140b582613a50565b9050602081019050919050565b60006140d56140d084614091565b613ac1565b9050828152602081018484840111156140f1576140f0613a4b565b5b6140fc848285613b0d565b509392505050565b600082601f83011261411957614118613a46565b5b81356141298482602086016140c2565b91505092915050565b6000806000806080858703121561414c5761414b613a06565b5b600061415a87828801613e13565b945050602061416b87828801613e13565b935050604061417c87828801613a31565b925050606085013567ffffffffffffffff81111561419d5761419c613a0b565b5b6141a987828801614104565b91505092959194509250565b600080600080600080600060e0888a0312156141d4576141d3613a06565b5b600088013567ffffffffffffffff8111156141f2576141f1613a0b565b5b6141fe8a828b01613b5e565b975050602088013567ffffffffffffffff81111561421f5761421e613a0b565b5b61422b8a828b01613b5e565b965050604088013567ffffffffffffffff81111561424c5761424b613a0b565b5b6142588a828b01613b5e565b95505060606142698a828b01613a31565b945050608061427a8a828b01613a31565b93505060a061428b8a828b01613a31565b92505060c088013567ffffffffffffffff8111156142ac576142ab613a0b565b5b6142b88a828b01613b5e565b91505092959891949750929550565b600080604083850312156142de576142dd613a06565b5b60006142ec85828601613a31565b92505060206142fd85828601613a31565b9150509250929050565b6000806040838503121561431e5761431d613a06565b5b600061432c85828601613e13565b925050602061433d85828601613e13565b9150509250929050565b6000610100820190508181036000830152614362818b613d18565b90508181036020830152614376818a613d18565b9050818103604083015261438a8189613d18565b90506143996060830188613e68565b6143a66080830187613e68565b6143b360a0830186613e68565b6143c060c0830185613e68565b81810360e08301526143d28184613d18565b90509998505050505050505050565b600081519050919050565b600082825260208201905092915050565b6000819050602082019050919050565b61441681613a10565b82525050565b6000614428838361440d565b60208301905092915050565b6000602082019050919050565b600061444c826143e1565b61445681856143ec565b9350614461836143fd565b8060005b83811015614492578151614479888261441c565b975061448483614434565b925050600181019050614465565b5085935050505092915050565b600060208201905081810360008301526144b98184614441565b905092915050565b7f536f6c64206f7574000000000000000000000000000000000000000000000000600082015250565b60006144f7600883613cdd565b9150614502826144c1565b602082019050919050565b60006020820190508181036000830152614526816144ea565b9050919050565b7f496e73756666696369656e74207061796d656e74000000000000000000000000600082015250565b6000614563601483613cdd565b915061456e8261452d565b602082019050919050565b6000602082019050818103600083015261459281614556565b9050919050565b7f4e487b7100000000000000000000000000000000000000000000000000000000600052601160045260246000fd5b60006145d382613a10565b91507fffffffffffffffffffffffffffffffffffffffffffffffffffffffffffffffff820361460557614604614599565b5b600182019050919050565b7f4e487b7100000000000000000000000000000000000000000000000000000000600052602260045260246000fd5b6000600282049050600182168061465757607f821691505b60208210810361466a57614669614610565b5b50919050565b60008190508160005260206000209050919050565b60006020601f8301049050919050565b600082821b905092915050565b6000600883026146d27fffffffffffffffffffffffffffffffffffffffffffffffffffffffffffffffff82614695565b6146dc8683614695565b95508019841693508086168417925050509392505050565b6000819050919050565b600061471961471461470f84613a10565b6146f4565b613a10565b9050919050565b6000819050919050565b614733836146fe565b61474761473f82614720565b8484546146a2565b825550505050565b600090565b61475c61474f565b61476781848461472a565b505050565b5b8181101561478b57614780600082614754565b60018101905061476d565b5050565b601f8211156147d0576147a181614670565b6147aa84614685565b810160208510156147b9578190505b6147cd6147c585614685565b83018261476c565b50505b505050565b600082821c905092915050565b60006147f3600019846008026147d5565b1980831691505092915050565b600061480c83836147e2565b9150826002028217905092915050565b61482582613cd2565b67ffffffffffffffff81111561483e5761483d613a61565b5b614848825461463f565b61485382828561478f565b600060209050601f8311600181146148865760008415614874578287015190505b61487e8582614800565b8655506148e6565b601f19841661489486614670565b60005b828110156148bc57848901518255600182019150602085019450602081019050614897565b868310156148d957848901516148d5601f8916826147e2565b8355505b6001600288020188555050505b505050505050565b60006148f982613a10565b915061490483613a10565b925082820190508082111561491c5761491b614599565b5b92915050565b7f4552433732313a20617070726f76616c20746f2063757272656e74206f776e6560008201527f7200000000000000000000000000000000000000000000000000000000000000602082015250565b600061497e602183613cdd565b915061498982614922565b604082019050919050565b600060208201905081810360008301526149ad81614971565b9050919050565b7f4552433732313a20617070726f76652063616c6c6572206973206e6f7420746f60008201527f6b656e206f776e6572206f7220617070726f76656420666f7220616c6c000000602082015250565b6000614a10603d83613cdd565b9150614a1b826149b4565b604082019050919050565b60006020820190508181036000830152614a3f81614a03565b9050919050565b7f4e6f7420666f722073616c650000000000000000000000000000000000000000600082015250565b6000614a7c600c83613cdd565b9150614a8782614a46565b602082019050919050565b60006020820190508181036000830152614aab81614a6f565b9050919050565b6000614abd82613a10565b9150614ac883613a10565b9250828202614ad681613a10565b91508282048414831517614aed57614aec614599565b5b5092915050565b7f4e487b7100000000000000000000000000000000000000000000000000000000600052601260045260246000fd5b6000614b2e82613a10565b9150614b3983613a10565b925082614b4957614b48614af4565b5b828204905092915050565b6000614b5f82613a10565b9150614b6a83613a10565b9250828203905081811115614b8257614b81614599565b5b92915050565b7f4552433732313a2063616c6c6572206973206e6f7420746f6b656e206f776e6560008201527f72206f7220617070726f76656400000000000000000000000000000000000000602082015250565b6000614be4602d83613cdd565b9150614bef82614b88565b604082019050919050565b60006020820190508181036000830152614c1381614bd7565b9050919050565b7f5469636b657420646f6573206e6f742065786973740000000000000000000000600082015250565b6000614c50601583613cdd565b9150614c5b82614c1a565b602082019050919050565b60006020820190508181036000830152614c7f81614c43565b9050919050565b7f455243373231456e756d657261626c653a206f776e657220696e646578206f7560008201527f74206f6620626f756e6473000000000000000000000000000000000000000000602082015250565b6000614ce2602b83613cdd565b9150614ced82614c86565b604082019050919050565b60006020820190508181036000830152614d1181614cd5565b9050919050565b7f455243373231456e756d657261626c653a20676c6f62616c20696e646578206f60008201527f7574206f6620626f756e64730000000000000000000000000000000000000000602082015250565b6000614d74602c83613cdd565b9150614d7f82614d18565b604082019050919050565b60006020820190508181036000830152614da381614d67565b9050919050565b7f4e487b7100000000000000000000000000000000000000000000000000000000600052603260045260246000fd5b7f4552433732313a20696e76616c696420746f6b656e2049440000000000000000600082015250565b6000614e0f601883613cdd565b9150614e1a82614dd9565b602082019050919050565b60006020820190508181036000830152614e3e81614e02565b9050919050565b7f4e6f7420746865206576656e74206f7267616e697a6572000000000000000000600082015250565b6000614e7b601783613cdd565b9150614e8682614e45565b602082019050919050565b60006020820190508181036000830152614eaa81614e6e565b9050919050565b7f4e6f206561726e696e677320746f207769746864726177000000000000000000600082015250565b6000614ee7601783613cdd565b9150614ef282614eb1565b602082019050919050565b60006020820190508181036000830152614f1681614eda565b9050919050565b7f4552433732313a2061646472657373207a65726f206973206e6f74206120766160008201527f6c6964206f776e65720000000000000000000000000000000000000000000000602082015250565b6000614f79602983613cdd565b9150614f8482614f1d565b604082019050919050565b60006020820190508181036000830152614fa881614f6c565b9050919050565b7f4e6f74206f776e65720000000000000000000000000000000000000000000000600082015250565b6000614fe5600983613cdd565b9150614ff082614faf565b602082019050919050565b6000602082019050818103600083015261501481614fd8565b9050919050565b7f5072696365206578636565647320636170000000000000000000000000000000600082015250565b6000615051601183613cdd565b915061505c8261501b565b602082019050919050565b6000602082019050818103600083015261508081615044565b9050919050565b7f4f776e61626c653a206e6577206f776e657220697320746865207a65726f206160008201527f6464726573730000000000000000000000000000000000000000000000000000602082015250565b60006150e3602683613cdd565b91506150ee82615087565b604082019050919050565b60006020820190508181036000830152615112816150d6565b9050919050565b7f45524337323155524953746f726167653a2055524920736574206f66206e6f6e60008201527f6578697374656e7420746f6b656e000000000000000000000000000000000000602082015250565b6000615175602e83613cdd565b915061518082615119565b604082019050919050565b600060208201905081810360008301526151a481615168565b9050919050565b7f4552433732313a207472616e736665722066726f6d20696e636f72726563742060008201527f6f776e6572000000000000000000000000000000000000000000000000000000602082015250565b6000615207602583613cdd565b9150615212826151ab565b604082019050919050565b60006020820190508181036000830152615236816151fa565b9050919050565b7f4552433732313a207472616e7366657220746f20746865207a65726f2061646460008201527f7265737300000000000000000000000000000000000000000000000000000000602082015250565b6000615299602483613cdd565b91506152a48261523d565b604082019050919050565b600060208201905081810360008301526152c88161528c565b9050919050565b7f4f776e61626c653a2063616c6c6572206973206e6f7420746865206f776e6572600082015250565b6000615305602083613cdd565b9150615310826152cf565b602082019050919050565b60006020820190508181036000830152615334816152f8565b9050919050565b7f4552433732313a20617070726f766520746f2063616c6c657200000000000000600082015250565b6000615371601983613cdd565b915061537c8261533b565b602082019050919050565b600060208201905081810360008301526153a081615364565b9050919050565b7f4552433732313a207472616e7366657220746f206e6f6e20455243373231526560008201527f63656976657220696d706c656d656e7465720000000000000000000000000000602082015250565b6000615403603283613cdd565b915061540e826153a7565b604082019050919050565b60006020820190508181036000830152615432816153f6565b9050919050565b600081905092915050565b600061544f82613cd2565b6154598185615439565b9350615469818560208601613cee565b80840191505092915050565b60006154818285615444565b915061548d8284615444565b91508190509392505050565b600081519050919050565b600082825260208201905092915050565b60006154c082615499565b6154ca81856154a4565b93506154da818560208601613cee565b6154e381613a50565b840191505092915050565b60006080820190506155036000830187613dd2565b6155106020830186613dd2565b61551d6040830185613e68565b818103606083015261552f81846154b5565b905095945050505050565b60008151905061554981613c43565b92915050565b60006020828403121561556557615564613a06565b5b60006155738482850161553a565b91505092915050565b7f4552433732313a206d696e7420746f20746865207a65726f2061646472657373600082015250565b60006155b2602083613cdd565b91506155bd8261557c565b602082019050919050565b600060208201905081810360008301526155e1816155a5565b9050919050565b7f4552433732313a20746f6b656e20616c7265616479206d696e74656400000000600082015250565b600061561e601c83613cdd565b9150615629826155e8565b602082019050919050565b6000602082019050818103600083015261564d81615611565b9050919050565b7f455243373231456e756d657261626c653a20636f6e736563757469766520747260008201527f616e7366657273206e6f7420737570706f727465640000000000000000000000602082015250565b60006156b0603583613cdd565b91506156bb82615654565b604082019050919050565b600060208201905081810360008301526156df816156a3565b9050919050565b7f4e487b7100000000000000000000000000000000000000000000000000000000600052603160045260246000fdfea2646970667358221220ca9a960bada711e45401a942456b611dc25ea16d9ed902915cf54e62331c8b0964736f6c634300081c0033",
  "linkReferences": {},
  "deployedLinkReferences": {}
}